{
	"contracts/storagefactory.sol": {
		"storagefactory": {
			"abi": [
				{
					"inputs": [
						{
							"internalType": "uint256",
							"name": "",
							"type": "uint256"
						}
					],
					"name": "SimpleStorageArray",
					"outputs": [
						{
							"internalType": "contract simpleStorage",
							"name": "",
							"type": "address"
						}
					],
					"stateMutability": "view",
					"type": "function"
				},
				{
					"inputs": [],
					"name": "createSimpleStorageContract",
					"outputs": [],
					"stateMutability": "nonpayable",
					"type": "function"
				},
				{
					"inputs": [
						{
							"internalType": "uint256",
							"name": "_simpleStorageIndex",
							"type": "uint256"
						}
					],
					"name": "sfGet",
					"outputs": [
						{
							"internalType": "uint256",
							"name": "",
							"type": "uint256"
						}
					],
					"stateMutability": "view",
					"type": "function"
				},
				{
					"inputs": [
						{
							"internalType": "uint256",
							"name": "_simpleStorageIndex",
							"type": "uint256"
						},
						{
							"internalType": "uint256",
							"name": "_simpleStorageVal",
							"type": "uint256"
						}
					],
					"name": "sfStore",
					"outputs": [],
					"stateMutability": "nonpayable",
					"type": "function"
				}
			],
			"devdoc": {
				"kind": "dev",
				"methods": {},
				"version": 1
			},
			"evm": {
				"assembly": "    /* \"contracts/storagefactory.sol\":94:779  contract storagefactory {\r... */\n  mstore(0x40, 0x80)\n  callvalue\n  dup1\n  iszero\n  tag_1\n  jumpi\n  0x00\n  dup1\n  revert\ntag_1:\n  pop\n  dataSize(sub_0)\n  dup1\n  dataOffset(sub_0)\n  0x00\n  codecopy\n  0x00\n  return\nstop\n\nsub_0: assembly {\n        /* \"contracts/storagefactory.sol\":94:779  contract storagefactory {\r... */\n      mstore(0x40, 0x80)\n      callvalue\n      dup1\n      iszero\n      tag_1\n      jumpi\n      0x00\n      dup1\n      revert\n    tag_1:\n      pop\n      jumpi(tag_2, lt(calldatasize, 0x04))\n      shr(0xe0, calldataload(0x00))\n      dup1\n      0x1563700f\n      eq\n      tag_3\n      jumpi\n      dup1\n      0x1dda6541\n      eq\n      tag_4\n      jumpi\n      dup1\n      0xc5f19c20\n      eq\n      tag_5\n      jumpi\n      dup1\n      0xf5daaa02\n      eq\n      tag_6\n      jumpi\n    tag_2:\n      0x00\n      dup1\n      revert\n        /* \"contracts/storagefactory.sol\":363:578  function sfStore(uint256 _simpleStorageIndex, uint256 _simpleStorageVal) public {\r... */\n    tag_3:\n      tag_7\n      0x04\n      dup1\n      calldatasize\n      sub\n      dup2\n      add\n      swap1\n      tag_8\n      swap2\n      swap1\n      tag_9\n      jump\t// in\n    tag_8:\n      tag_10\n      jump\t// in\n    tag_7:\n      stop\n        /* \"contracts/storagefactory.sol\":189:355  function createSimpleStorageContract() public {\r... */\n    tag_4:\n      tag_11\n      tag_12\n      jump\t// in\n    tag_11:\n      stop\n        /* \"contracts/storagefactory.sol\":586:776  function sfGet(uint256 _simpleStorageIndex) public view returns(uint256){\r... */\n    tag_5:\n      tag_13\n      0x04\n      dup1\n      calldatasize\n      sub\n      dup2\n      add\n      swap1\n      tag_14\n      swap2\n      swap1\n      tag_15\n      jump\t// in\n    tag_14:\n      tag_16\n      jump\t// in\n    tag_13:\n      mload(0x40)\n      tag_17\n      swap2\n      swap1\n      tag_18\n      jump\t// in\n    tag_17:\n      mload(0x40)\n      dup1\n      swap2\n      sub\n      swap1\n      return\n        /* \"contracts/storagefactory.sol\":130:171  simpleStorage[] public SimpleStorageArray */\n    tag_6:\n      tag_19\n      0x04\n      dup1\n      calldatasize\n      sub\n      dup2\n      add\n      swap1\n      tag_20\n      swap2\n      swap1\n      tag_15\n      jump\t// in\n    tag_20:\n      tag_21\n      jump\t// in\n    tag_19:\n      mload(0x40)\n      tag_22\n      swap2\n      swap1\n      tag_23\n      jump\t// in\n    tag_22:\n      mload(0x40)\n      dup1\n      swap2\n      sub\n      swap1\n      return\n        /* \"contracts/storagefactory.sol\":363:578  function sfStore(uint256 _simpleStorageIndex, uint256 _simpleStorageVal) public {\r... */\n    tag_10:\n        /* \"contracts/storagefactory.sol\":465:485  simpleStorage simple */\n      0x00\n        /* \"contracts/storagefactory.sol\":488:506  SimpleStorageArray */\n      dup1\n        /* \"contracts/storagefactory.sol\":507:526  _simpleStorageIndex */\n      dup4\n        /* \"contracts/storagefactory.sol\":488:527  SimpleStorageArray[_simpleStorageIndex] */\n      dup2\n      sload\n      dup2\n      lt\n      tag_25\n      jumpi\n      tag_26\n      tag_27\n      jump\t// in\n    tag_26:\n    tag_25:\n      swap1\n      0x00\n      mstore\n      keccak256(0x00, 0x20)\n      add\n      0x00\n      swap1\n      sload\n      swap1\n      0x0100\n      exp\n      swap1\n      div\n      0xffffffffffffffffffffffffffffffffffffffff\n      and\n        /* \"contracts/storagefactory.sol\":465:527  simpleStorage simple = SimpleStorageArray[_simpleStorageIndex] */\n      swap1\n      pop\n        /* \"contracts/storagefactory.sol\":539:545  simple */\n      dup1\n        /* \"contracts/storagefactory.sol\":539:551  simple.store */\n      0xffffffffffffffffffffffffffffffffffffffff\n      and\n      0x6057361d\n        /* \"contracts/storagefactory.sol\":552:569  _simpleStorageVal */\n      dup4\n        /* \"contracts/storagefactory.sol\":539:570  simple.store(_simpleStorageVal) */\n      mload(0x40)\n      dup3\n      0xffffffff\n      and\n      0xe0\n      shl\n      dup2\n      mstore\n      0x04\n      add\n      tag_29\n      swap2\n      swap1\n      tag_18\n      jump\t// in\n    tag_29:\n      0x00\n      mload(0x40)\n      dup1\n      dup4\n      sub\n      dup2\n      0x00\n      dup8\n      dup1\n      extcodesize\n      iszero\n      dup1\n      iszero\n      tag_30\n      jumpi\n      0x00\n      dup1\n      revert\n    tag_30:\n      pop\n      gas\n      call\n      iszero\n      dup1\n      iszero\n      tag_32\n      jumpi\n      returndatasize\n      0x00\n      dup1\n      returndatacopy\n      revert(0x00, returndatasize)\n    tag_32:\n      pop\n      pop\n      pop\n      pop\n        /* \"contracts/storagefactory.sol\":443:578  {\r... */\n      pop\n        /* \"contracts/storagefactory.sol\":363:578  function sfStore(uint256 _simpleStorageIndex, uint256 _simpleStorageVal) public {\r... */\n      pop\n      pop\n      jump\t// out\n        /* \"contracts/storagefactory.sol\":189:355  function createSimpleStorageContract() public {\r... */\n    tag_12:\n        /* \"contracts/storagefactory.sol\":248:275  simpleStorage SimpleStorage */\n      0x00\n        /* \"contracts/storagefactory.sol\":278:297  new simpleStorage() */\n      mload(0x40)\n      tag_34\n      swap1\n      tag_35\n      jump\t// in\n    tag_34:\n      mload(0x40)\n      dup1\n      swap2\n      sub\n      swap1\n      0x00\n      create\n      dup1\n      iszero\n      dup1\n      iszero\n      tag_36\n      jumpi\n      returndatasize\n      0x00\n      dup1\n      returndatacopy\n      revert(0x00, returndatasize)\n    tag_36:\n      pop\n        /* \"contracts/storagefactory.sol\":248:297  simpleStorage SimpleStorage = new simpleStorage() */\n      swap1\n      pop\n        /* \"contracts/storagefactory.sol\":309:327  SimpleStorageArray */\n      0x00\n        /* \"contracts/storagefactory.sol\":333:346  SimpleStorage */\n      dup2\n        /* \"contracts/storagefactory.sol\":309:347  SimpleStorageArray.push(SimpleStorage) */\n      swap1\n      dup1\n      0x01\n      dup2\n      sload\n      add\n      dup1\n      dup3\n      sstore\n      dup1\n      swap2\n      pop\n      pop\n      0x01\n      swap1\n      sub\n      swap1\n      0x00\n      mstore\n      keccak256(0x00, 0x20)\n      add\n      0x00\n      swap1\n      swap2\n      swap1\n      swap2\n      swap1\n      swap2\n      0x0100\n      exp\n      dup2\n      sload\n      dup2\n      0xffffffffffffffffffffffffffffffffffffffff\n      mul\n      not\n      and\n      swap1\n      dup4\n      0xffffffffffffffffffffffffffffffffffffffff\n      and\n      mul\n      or\n      swap1\n      sstore\n      pop\n        /* \"contracts/storagefactory.sol\":235:355  {\r... */\n      pop\n        /* \"contracts/storagefactory.sol\":189:355  function createSimpleStorageContract() public {\r... */\n      jump\t// out\n        /* \"contracts/storagefactory.sol\":586:776  function sfGet(uint256 _simpleStorageIndex) public view returns(uint256){\r... */\n    tag_16:\n        /* \"contracts/storagefactory.sol\":650:657  uint256 */\n      0x00\n        /* \"contracts/storagefactory.sol\":669:689  simpleStorage simple */\n      dup1\n        /* \"contracts/storagefactory.sol\":692:710  SimpleStorageArray */\n      0x00\n        /* \"contracts/storagefactory.sol\":711:730  _simpleStorageIndex */\n      dup4\n        /* \"contracts/storagefactory.sol\":692:731  SimpleStorageArray[_simpleStorageIndex] */\n      dup2\n      sload\n      dup2\n      lt\n      tag_39\n      jumpi\n      tag_40\n      tag_27\n      jump\t// in\n    tag_40:\n    tag_39:\n      swap1\n      0x00\n      mstore\n      keccak256(0x00, 0x20)\n      add\n      0x00\n      swap1\n      sload\n      swap1\n      0x0100\n      exp\n      swap1\n      div\n      0xffffffffffffffffffffffffffffffffffffffff\n      and\n        /* \"contracts/storagefactory.sol\":669:731  simpleStorage simple = SimpleStorageArray[_simpleStorageIndex] */\n      swap1\n      pop\n        /* \"contracts/storagefactory.sol\":751:757  simple */\n      dup1\n        /* \"contracts/storagefactory.sol\":751:766  simple.retrieve */\n      0xffffffffffffffffffffffffffffffffffffffff\n      and\n      0x2e64cec1\n        /* \"contracts/storagefactory.sol\":751:768  simple.retrieve() */\n      mload(0x40)\n      dup2\n      0xffffffff\n      and\n      0xe0\n      shl\n      dup2\n      mstore\n      0x04\n      add\n      0x20\n      mload(0x40)\n      dup1\n      dup4\n      sub\n      dup2\n      dup7\n      dup1\n      extcodesize\n      iszero\n      dup1\n      iszero\n      tag_42\n      jumpi\n      0x00\n      dup1\n      revert\n    tag_42:\n      pop\n      gas\n      staticcall\n      iszero\n      dup1\n      iszero\n      tag_44\n      jumpi\n      returndatasize\n      0x00\n      dup1\n      returndatacopy\n      revert(0x00, returndatasize)\n    tag_44:\n      pop\n      pop\n      pop\n      pop\n      mload(0x40)\n      returndatasize\n      not(0x1f)\n      0x1f\n      dup3\n      add\n      and\n      dup3\n      add\n      dup1\n      0x40\n      mstore\n      pop\n      dup2\n      add\n      swap1\n      tag_45\n      swap2\n      swap1\n      tag_46\n      jump\t// in\n    tag_45:\n        /* \"contracts/storagefactory.sol\":744:768  return simple.retrieve() */\n      swap2\n      pop\n      pop\n        /* \"contracts/storagefactory.sol\":586:776  function sfGet(uint256 _simpleStorageIndex) public view returns(uint256){\r... */\n      swap2\n      swap1\n      pop\n      jump\t// out\n        /* \"contracts/storagefactory.sol\":130:171  simpleStorage[] public SimpleStorageArray */\n    tag_21:\n      0x00\n      dup2\n      dup2\n      sload\n      dup2\n      lt\n      tag_47\n      jumpi\n      0x00\n      dup1\n      revert\n    tag_47:\n      swap1\n      0x00\n      mstore\n      keccak256(0x00, 0x20)\n      add\n      0x00\n      swap2\n      pop\n      sload\n      swap1\n      0x0100\n      exp\n      swap1\n      div\n      0xffffffffffffffffffffffffffffffffffffffff\n      and\n      dup2\n      jump\t// out\n    tag_35:\n      dataSize(sub_0)\n      dup1\n      dataOffset(sub_0)\n      dup4\n      codecopy\n      add\n      swap1\n      jump\t// out\n        /* \"#utility.yul\":7:146   */\n    tag_50:\n        /* \"#utility.yul\":53:58   */\n      0x00\n        /* \"#utility.yul\":91:97   */\n      dup2\n        /* \"#utility.yul\":78:98   */\n      calldataload\n        /* \"#utility.yul\":69:98   */\n      swap1\n      pop\n        /* \"#utility.yul\":107:140   */\n      tag_52\n        /* \"#utility.yul\":134:139   */\n      dup2\n        /* \"#utility.yul\":107:140   */\n      tag_53\n      jump\t// in\n    tag_52:\n        /* \"#utility.yul\":7:146   */\n      swap3\n      swap2\n      pop\n      pop\n      jump\t// out\n        /* \"#utility.yul\":152:295   */\n    tag_54:\n        /* \"#utility.yul\":209:214   */\n      0x00\n        /* \"#utility.yul\":240:246   */\n      dup2\n        /* \"#utility.yul\":234:247   */\n      mload\n        /* \"#utility.yul\":225:247   */\n      swap1\n      pop\n        /* \"#utility.yul\":256:289   */\n      tag_56\n        /* \"#utility.yul\":283:288   */\n      dup2\n        /* \"#utility.yul\":256:289   */\n      tag_53\n      jump\t// in\n    tag_56:\n        /* \"#utility.yul\":152:295   */\n      swap3\n      swap2\n      pop\n      pop\n      jump\t// out\n        /* \"#utility.yul\":301:630   */\n    tag_15:\n        /* \"#utility.yul\":360:366   */\n      0x00\n        /* \"#utility.yul\":409:411   */\n      0x20\n        /* \"#utility.yul\":397:406   */\n      dup3\n        /* \"#utility.yul\":388:395   */\n      dup5\n        /* \"#utility.yul\":384:407   */\n      sub\n        /* \"#utility.yul\":380:412   */\n      slt\n        /* \"#utility.yul\":377:496   */\n      iszero\n      tag_58\n      jumpi\n        /* \"#utility.yul\":415:494   */\n      tag_59\n      tag_60\n      jump\t// in\n    tag_59:\n        /* \"#utility.yul\":377:496   */\n    tag_58:\n        /* \"#utility.yul\":535:536   */\n      0x00\n        /* \"#utility.yul\":560:613   */\n      tag_61\n        /* \"#utility.yul\":605:612   */\n      dup5\n        /* \"#utility.yul\":596:602   */\n      dup3\n        /* \"#utility.yul\":585:594   */\n      dup6\n        /* \"#utility.yul\":581:603   */\n      add\n        /* \"#utility.yul\":560:613   */\n      tag_50\n      jump\t// in\n    tag_61:\n        /* \"#utility.yul\":550:613   */\n      swap2\n      pop\n        /* \"#utility.yul\":506:623   */\n      pop\n        /* \"#utility.yul\":301:630   */\n      swap3\n      swap2\n      pop\n      pop\n      jump\t// out\n        /* \"#utility.yul\":636:987   */\n    tag_46:\n        /* \"#utility.yul\":706:712   */\n      0x00\n        /* \"#utility.yul\":755:757   */\n      0x20\n        /* \"#utility.yul\":743:752   */\n      dup3\n        /* \"#utility.yul\":734:741   */\n      dup5\n        /* \"#utility.yul\":730:753   */\n      sub\n        /* \"#utility.yul\":726:758   */\n      slt\n        /* \"#utility.yul\":723:842   */\n      iszero\n      tag_63\n      jumpi\n        /* \"#utility.yul\":761:840   */\n      tag_64\n      tag_60\n      jump\t// in\n    tag_64:\n        /* \"#utility.yul\":723:842   */\n    tag_63:\n        /* \"#utility.yul\":881:882   */\n      0x00\n        /* \"#utility.yul\":906:970   */\n      tag_65\n        /* \"#utility.yul\":962:969   */\n      dup5\n        /* \"#utility.yul\":953:959   */\n      dup3\n        /* \"#utility.yul\":942:951   */\n      dup6\n        /* \"#utility.yul\":938:960   */\n      add\n        /* \"#utility.yul\":906:970   */\n      tag_54\n      jump\t// in\n    tag_65:\n        /* \"#utility.yul\":896:970   */\n      swap2\n      pop\n        /* \"#utility.yul\":852:980   */\n      pop\n        /* \"#utility.yul\":636:987   */\n      swap3\n      swap2\n      pop\n      pop\n      jump\t// out\n        /* \"#utility.yul\":993:1467   */\n    tag_9:\n        /* \"#utility.yul\":1061:1067   */\n      0x00\n        /* \"#utility.yul\":1069:1075   */\n      dup1\n        /* \"#utility.yul\":1118:1120   */\n      0x40\n        /* \"#utility.yul\":1106:1115   */\n      dup4\n        /* \"#utility.yul\":1097:1104   */\n      dup6\n        /* \"#utility.yul\":1093:1116   */\n      sub\n        /* \"#utility.yul\":1089:1121   */\n      slt\n        /* \"#utility.yul\":1086:1205   */\n      iszero\n      tag_67\n      jumpi\n        /* \"#utility.yul\":1124:1203   */\n      tag_68\n      tag_60\n      jump\t// in\n    tag_68:\n        /* \"#utility.yul\":1086:1205   */\n    tag_67:\n        /* \"#utility.yul\":1244:1245   */\n      0x00\n        /* \"#utility.yul\":1269:1322   */\n      tag_69\n        /* \"#utility.yul\":1314:1321   */\n      dup6\n        /* \"#utility.yul\":1305:1311   */\n      dup3\n        /* \"#utility.yul\":1294:1303   */\n      dup7\n        /* \"#utility.yul\":1290:1312   */\n      add\n        /* \"#utility.yul\":1269:1322   */\n      tag_50\n      jump\t// in\n    tag_69:\n        /* \"#utility.yul\":1259:1322   */\n      swap3\n      pop\n        /* \"#utility.yul\":1215:1332   */\n      pop\n        /* \"#utility.yul\":1371:1373   */\n      0x20\n        /* \"#utility.yul\":1397:1450   */\n      tag_70\n        /* \"#utility.yul\":1442:1449   */\n      dup6\n        /* \"#utility.yul\":1433:1439   */\n      dup3\n        /* \"#utility.yul\":1422:1431   */\n      dup7\n        /* \"#utility.yul\":1418:1440   */\n      add\n        /* \"#utility.yul\":1397:1450   */\n      tag_50\n      jump\t// in\n    tag_70:\n        /* \"#utility.yul\":1387:1450   */\n      swap2\n      pop\n        /* \"#utility.yul\":1342:1460   */\n      pop\n        /* \"#utility.yul\":993:1467   */\n      swap3\n      pop\n      swap3\n      swap1\n      pop\n      jump\t// out\n        /* \"#utility.yul\":1473:1644   */\n    tag_71:\n        /* \"#utility.yul\":1580:1637   */\n      tag_73\n        /* \"#utility.yul\":1631:1636   */\n      dup2\n        /* \"#utility.yul\":1580:1637   */\n      tag_74\n      jump\t// in\n    tag_73:\n        /* \"#utility.yul\":1575:1578   */\n      dup3\n        /* \"#utility.yul\":1568:1638   */\n      mstore\n        /* \"#utility.yul\":1473:1644   */\n      pop\n      pop\n      jump\t// out\n        /* \"#utility.yul\":1650:1768   */\n    tag_75:\n        /* \"#utility.yul\":1737:1761   */\n      tag_77\n        /* \"#utility.yul\":1755:1760   */\n      dup2\n        /* \"#utility.yul\":1737:1761   */\n      tag_78\n      jump\t// in\n    tag_77:\n        /* \"#utility.yul\":1732:1735   */\n      dup3\n        /* \"#utility.yul\":1725:1762   */\n      mstore\n        /* \"#utility.yul\":1650:1768   */\n      pop\n      pop\n      jump\t// out\n        /* \"#utility.yul\":1774:2036   */\n    tag_23:\n        /* \"#utility.yul\":1887:1891   */\n      0x00\n        /* \"#utility.yul\":1925:1927   */\n      0x20\n        /* \"#utility.yul\":1914:1923   */\n      dup3\n        /* \"#utility.yul\":1910:1928   */\n      add\n        /* \"#utility.yul\":1902:1928   */\n      swap1\n      pop\n        /* \"#utility.yul\":1938:2029   */\n      tag_80\n        /* \"#utility.yul\":2026:2027   */\n      0x00\n        /* \"#utility.yul\":2015:2024   */\n      dup4\n        /* \"#utility.yul\":2011:2028   */\n      add\n        /* \"#utility.yul\":2002:2008   */\n      dup5\n        /* \"#utility.yul\":1938:2029   */\n      tag_71\n      jump\t// in\n    tag_80:\n        /* \"#utility.yul\":1774:2036   */\n      swap3\n      swap2\n      pop\n      pop\n      jump\t// out\n        /* \"#utility.yul\":2042:2264   */\n    tag_18:\n        /* \"#utility.yul\":2135:2139   */\n      0x00\n        /* \"#utility.yul\":2173:2175   */\n      0x20\n        /* \"#utility.yul\":2162:2171   */\n      dup3\n        /* \"#utility.yul\":2158:2176   */\n      add\n        /* \"#utility.yul\":2150:2176   */\n      swap1\n      pop\n        /* \"#utility.yul\":2186:2257   */\n      tag_82\n        /* \"#utility.yul\":2254:2255   */\n      0x00\n        /* \"#utility.yul\":2243:2252   */\n      dup4\n        /* \"#utility.yul\":2239:2256   */\n      add\n        /* \"#utility.yul\":2230:2236   */\n      dup5\n        /* \"#utility.yul\":2186:2257   */\n      tag_75\n      jump\t// in\n    tag_82:\n        /* \"#utility.yul\":2042:2264   */\n      swap3\n      swap2\n      pop\n      pop\n      jump\t// out\n        /* \"#utility.yul\":2351:2477   */\n    tag_85:\n        /* \"#utility.yul\":2388:2395   */\n      0x00\n        /* \"#utility.yul\":2428:2470   */\n      0xffffffffffffffffffffffffffffffffffffffff\n        /* \"#utility.yul\":2421:2426   */\n      dup3\n        /* \"#utility.yul\":2417:2471   */\n      and\n        /* \"#utility.yul\":2406:2471   */\n      swap1\n      pop\n        /* \"#utility.yul\":2351:2477   */\n      swap2\n      swap1\n      pop\n      jump\t// out\n        /* \"#utility.yul\":2483:2560   */\n    tag_78:\n        /* \"#utility.yul\":2520:2527   */\n      0x00\n        /* \"#utility.yul\":2549:2554   */\n      dup2\n        /* \"#utility.yul\":2538:2554   */\n      swap1\n      pop\n        /* \"#utility.yul\":2483:2560   */\n      swap2\n      swap1\n      pop\n      jump\t// out\n        /* \"#utility.yul\":2566:2712   */\n    tag_74:\n        /* \"#utility.yul\":2636:2645   */\n      0x00\n        /* \"#utility.yul\":2669:2706   */\n      tag_89\n        /* \"#utility.yul\":2700:2705   */\n      dup3\n        /* \"#utility.yul\":2669:2706   */\n      tag_90\n      jump\t// in\n    tag_89:\n        /* \"#utility.yul\":2656:2706   */\n      swap1\n      pop\n        /* \"#utility.yul\":2566:2712   */\n      swap2\n      swap1\n      pop\n      jump\t// out\n        /* \"#utility.yul\":2718:2844   */\n    tag_90:\n        /* \"#utility.yul\":2768:2777   */\n      0x00\n        /* \"#utility.yul\":2801:2838   */\n      tag_92\n        /* \"#utility.yul\":2832:2837   */\n      dup3\n        /* \"#utility.yul\":2801:2838   */\n      tag_93\n      jump\t// in\n    tag_92:\n        /* \"#utility.yul\":2788:2838   */\n      swap1\n      pop\n        /* \"#utility.yul\":2718:2844   */\n      swap2\n      swap1\n      pop\n      jump\t// out\n        /* \"#utility.yul\":2850:2963   */\n    tag_93:\n        /* \"#utility.yul\":2900:2909   */\n      0x00\n        /* \"#utility.yul\":2933:2957   */\n      tag_95\n        /* \"#utility.yul\":2951:2956   */\n      dup3\n        /* \"#utility.yul\":2933:2957   */\n      tag_85\n      jump\t// in\n    tag_95:\n        /* \"#utility.yul\":2920:2957   */\n      swap1\n      pop\n        /* \"#utility.yul\":2850:2963   */\n      swap2\n      swap1\n      pop\n      jump\t// out\n        /* \"#utility.yul\":2969:3149   */\n    tag_27:\n        /* \"#utility.yul\":3017:3094   */\n      0x4e487b7100000000000000000000000000000000000000000000000000000000\n        /* \"#utility.yul\":3014:3015   */\n      0x00\n        /* \"#utility.yul\":3007:3095   */\n      mstore\n        /* \"#utility.yul\":3114:3118   */\n      0x32\n        /* \"#utility.yul\":3111:3112   */\n      0x04\n        /* \"#utility.yul\":3104:3119   */\n      mstore\n        /* \"#utility.yul\":3138:3142   */\n      0x24\n        /* \"#utility.yul\":3135:3136   */\n      0x00\n        /* \"#utility.yul\":3128:3143   */\n      revert\n        /* \"#utility.yul\":3278:3395   */\n    tag_60:\n        /* \"#utility.yul\":3387:3388   */\n      0x00\n        /* \"#utility.yul\":3384:3385   */\n      dup1\n        /* \"#utility.yul\":3377:3389   */\n      revert\n        /* \"#utility.yul\":3401:3523   */\n    tag_53:\n        /* \"#utility.yul\":3474:3498   */\n      tag_101\n        /* \"#utility.yul\":3492:3497   */\n      dup2\n        /* \"#utility.yul\":3474:3498   */\n      tag_78\n      jump\t// in\n    tag_101:\n        /* \"#utility.yul\":3467:3472   */\n      dup2\n        /* \"#utility.yul\":3464:3499   */\n      eq\n        /* \"#utility.yul\":3454:3517   */\n      tag_102\n      jumpi\n        /* \"#utility.yul\":3513:3514   */\n      0x00\n        /* \"#utility.yul\":3510:3511   */\n      dup1\n        /* \"#utility.yul\":3503:3515   */\n      revert\n        /* \"#utility.yul\":3454:3517   */\n    tag_102:\n        /* \"#utility.yul\":3401:3523   */\n      pop\n      jump\t// out\n    stop\n\n    sub_0: assembly {\n            /* \"contracts/simpleStorage.sol\":60:710  contract simpleStorage {\r... */\n          mstore(0x40, 0x80)\n          callvalue\n          dup1\n          iszero\n          tag_1\n          jumpi\n          0x00\n          dup1\n          revert\n        tag_1:\n          pop\n          dataSize(sub_0)\n          dup1\n          dataOffset(sub_0)\n          0x00\n          codecopy\n          0x00\n          return\n        stop\n\n        sub_0: assembly {\n                /* \"contracts/simpleStorage.sol\":60:710  contract simpleStorage {\r... */\n              mstore(0x40, 0x80)\n              callvalue\n              dup1\n              iszero\n              tag_1\n              jumpi\n              0x00\n              dup1\n              revert\n            tag_1:\n              pop\n              jumpi(tag_2, lt(calldatasize, 0x04))\n              shr(0xe0, calldataload(0x00))\n              dup1\n              0x2e64cec1\n              eq\n              tag_3\n              jumpi\n              dup1\n              0x364410b3\n              eq\n              tag_4\n              jumpi\n              dup1\n              0x6057361d\n              eq\n              tag_5\n              jumpi\n              dup1\n              0x9e7a13ad\n              eq\n              tag_6\n              jumpi\n              dup1\n              0xbc832d4e\n              eq\n              tag_7\n              jumpi\n            tag_2:\n              0x00\n              dup1\n              revert\n                /* \"contracts/simpleStorage.sol\":627:707  function retrieve() public view  returns(uint256){\r... */\n            tag_3:\n              tag_8\n              tag_9\n              jump\t// in\n            tag_8:\n              mload(0x40)\n              tag_10\n              swap2\n              swap1\n              tag_11\n              jump\t// in\n            tag_10:\n              mload(0x40)\n              dup1\n              swap2\n              sub\n              swap1\n              return\n                /* \"contracts/simpleStorage.sol\":250:293  mapping (uint256 => string) public idToName */\n            tag_4:\n              tag_12\n              0x04\n              dup1\n              calldatasize\n              sub\n              dup2\n              add\n              swap1\n              tag_13\n              swap2\n              swap1\n              tag_14\n              jump\t// in\n            tag_13:\n              tag_15\n              jump\t// in\n            tag_12:\n              mload(0x40)\n              tag_16\n              swap2\n              swap1\n              tag_17\n              jump\t// in\n            tag_16:\n              mload(0x40)\n              dup1\n              swap2\n              sub\n              swap1\n              return\n                /* \"contracts/simpleStorage.sol\":549:621  function store(uint256 _val) public  {\r... */\n            tag_5:\n              tag_18\n              0x04\n              dup1\n              calldatasize\n              sub\n              dup2\n              add\n              swap1\n              tag_19\n              swap2\n              swap1\n              tag_14\n              jump\t// in\n            tag_19:\n              tag_20\n              jump\t// in\n            tag_18:\n              stop\n                /* \"contracts/simpleStorage.sol\":301:323  People[] public people */\n            tag_6:\n              tag_21\n              0x04\n              dup1\n              calldatasize\n              sub\n              dup2\n              add\n              swap1\n              tag_22\n              swap2\n              swap1\n              tag_14\n              jump\t// in\n            tag_22:\n              tag_23\n              jump\t// in\n            tag_21:\n              mload(0x40)\n              tag_24\n              swap3\n              swap2\n              swap1\n              tag_25\n              jump\t// in\n            tag_24:\n              mload(0x40)\n              dup1\n              swap2\n              sub\n              swap1\n              return\n                /* \"contracts/simpleStorage.sol\":332:539  function addPerson(uint256 _val, string calldata _name) public {\r... */\n            tag_7:\n              tag_26\n              0x04\n              dup1\n              calldatasize\n              sub\n              dup2\n              add\n              swap1\n              tag_27\n              swap2\n              swap1\n              tag_28\n              jump\t// in\n            tag_27:\n              tag_29\n              jump\t// in\n            tag_26:\n              stop\n                /* \"contracts/simpleStorage.sol\":627:707  function retrieve() public view  returns(uint256){\r... */\n            tag_9:\n                /* \"contracts/simpleStorage.sol\":668:675  uint256 */\n              0x00\n                /* \"contracts/simpleStorage.sol\":694:699  value */\n              dup1\n              sload\n                /* \"contracts/simpleStorage.sol\":687:699  return value */\n              swap1\n              pop\n                /* \"contracts/simpleStorage.sol\":627:707  function retrieve() public view  returns(uint256){\r... */\n              swap1\n              jump\t// out\n                /* \"contracts/simpleStorage.sol\":250:293  mapping (uint256 => string) public idToName */\n            tag_15:\n              mstore(0x20, 0x01)\n              dup1\n              0x00\n              mstore\n              keccak256(0x00, 0x40)\n              0x00\n              swap2\n              pop\n              swap1\n              pop\n              dup1\n              sload\n              tag_31\n              swap1\n              tag_32\n              jump\t// in\n            tag_31:\n              dup1\n              0x1f\n              add\n              0x20\n              dup1\n              swap2\n              div\n              mul\n              0x20\n              add\n              mload(0x40)\n              swap1\n              dup2\n              add\n              0x40\n              mstore\n              dup1\n              swap3\n              swap2\n              swap1\n              dup2\n              dup2\n              mstore\n              0x20\n              add\n              dup3\n              dup1\n              sload\n              tag_33\n              swap1\n              tag_32\n              jump\t// in\n            tag_33:\n              dup1\n              iszero\n              tag_34\n              jumpi\n              dup1\n              0x1f\n              lt\n              tag_35\n              jumpi\n              0x0100\n              dup1\n              dup4\n              sload\n              div\n              mul\n              dup4\n              mstore\n              swap2\n              0x20\n              add\n              swap2\n              jump(tag_34)\n            tag_35:\n              dup3\n              add\n              swap2\n              swap1\n              0x00\n              mstore\n              keccak256(0x00, 0x20)\n              swap1\n            tag_36:\n              dup2\n              sload\n              dup2\n              mstore\n              swap1\n              0x01\n              add\n              swap1\n              0x20\n              add\n              dup1\n              dup4\n              gt\n              tag_36\n              jumpi\n              dup3\n              swap1\n              sub\n              0x1f\n              and\n              dup3\n              add\n              swap2\n            tag_34:\n              pop\n              pop\n              pop\n              pop\n              pop\n              dup2\n              jump\t// out\n                /* \"contracts/simpleStorage.sol\":549:621  function store(uint256 _val) public  {\r... */\n            tag_20:\n                /* \"contracts/simpleStorage.sol\":609:613  _val */\n              dup1\n                /* \"contracts/simpleStorage.sol\":601:606  value */\n              0x00\n                /* \"contracts/simpleStorage.sol\":601:613  value = _val */\n              dup2\n              swap1\n              sstore\n              pop\n                /* \"contracts/simpleStorage.sol\":549:621  function store(uint256 _val) public  {\r... */\n              pop\n              jump\t// out\n                /* \"contracts/simpleStorage.sol\":301:323  People[] public people */\n            tag_23:\n              0x02\n              dup2\n              dup2\n              sload\n              dup2\n              lt\n              tag_38\n              jumpi\n              0x00\n              dup1\n              revert\n            tag_38:\n              swap1\n              0x00\n              mstore\n              keccak256(0x00, 0x20)\n              swap1\n              0x02\n              mul\n              add\n              0x00\n              swap2\n              pop\n              swap1\n              pop\n              dup1\n              0x00\n              add\n              sload\n              swap1\n              dup1\n              0x01\n              add\n              dup1\n              sload\n              tag_40\n              swap1\n              tag_32\n              jump\t// in\n            tag_40:\n              dup1\n              0x1f\n              add\n              0x20\n              dup1\n              swap2\n              div\n              mul\n              0x20\n              add\n              mload(0x40)\n              swap1\n              dup2\n              add\n              0x40\n              mstore\n              dup1\n              swap3\n              swap2\n              swap1\n              dup2\n              dup2\n              mstore\n              0x20\n              add\n              dup3\n              dup1\n              sload\n              tag_41\n              swap1\n              tag_32\n              jump\t// in\n            tag_41:\n              dup1\n              iszero\n              tag_42\n              jumpi\n              dup1\n              0x1f\n              lt\n              tag_43\n              jumpi\n              0x0100\n              dup1\n              dup4\n              sload\n              div\n              mul\n              dup4\n              mstore\n              swap2\n              0x20\n              add\n              swap2\n              jump(tag_42)\n            tag_43:\n              dup3\n              add\n              swap2\n              swap1\n              0x00\n              mstore\n              keccak256(0x00, 0x20)\n              swap1\n            tag_44:\n              dup2\n              sload\n              dup2\n              mstore\n              swap1\n              0x01\n              add\n              swap1\n              0x20\n              add\n              dup1\n              dup4\n              gt\n              tag_44\n              jumpi\n              dup3\n              swap1\n              sub\n              0x1f\n              and\n              dup3\n              add\n              swap2\n            tag_42:\n              pop\n              pop\n              pop\n              pop\n              pop\n              swap1\n              pop\n              dup3\n              jump\t// out\n                /* \"contracts/simpleStorage.sol\":332:539  function addPerson(uint256 _val, string calldata _name) public {\r... */\n            tag_29:\n                /* \"contracts/simpleStorage.sol\":407:430  People memory newPerson */\n              0x00\n                /* \"contracts/simpleStorage.sol\":433:463  People({id:_val, name: _name}) */\n              mload(0x40)\n              dup1\n              0x40\n              add\n              0x40\n              mstore\n              dup1\n                /* \"contracts/simpleStorage.sol\":444:448  _val */\n              dup6\n                /* \"contracts/simpleStorage.sol\":433:463  People({id:_val, name: _name}) */\n              dup2\n              mstore\n              0x20\n              add\n                /* \"contracts/simpleStorage.sol\":456:461  _name */\n              dup5\n              dup5\n                /* \"contracts/simpleStorage.sol\":433:463  People({id:_val, name: _name}) */\n              dup1\n              dup1\n              0x1f\n              add\n              0x20\n              dup1\n              swap2\n              div\n              mul\n              0x20\n              add\n              mload(0x40)\n              swap1\n              dup2\n              add\n              0x40\n              mstore\n              dup1\n              swap4\n              swap3\n              swap2\n              swap1\n              dup2\n              dup2\n              mstore\n              0x20\n              add\n              dup4\n              dup4\n              dup1\n              dup3\n              dup5\n              calldatacopy\n              0x00\n              dup2\n              dup5\n              add\n              mstore\n              not(0x1f)\n              0x1f\n              dup3\n              add\n              and\n              swap1\n              pop\n              dup1\n              dup4\n              add\n              swap3\n              pop\n              pop\n              pop\n              pop\n              pop\n              pop\n              pop\n              dup2\n              mstore\n              pop\n                /* \"contracts/simpleStorage.sol\":407:463  People memory newPerson = People({id:_val, name: _name}) */\n              swap1\n              pop\n                /* \"contracts/simpleStorage.sol\":475:481  people */\n              0x02\n                /* \"contracts/simpleStorage.sol\":487:496  newPerson */\n              dup2\n                /* \"contracts/simpleStorage.sol\":475:497  people.push(newPerson) */\n              swap1\n              dup1\n              0x01\n              dup2\n              sload\n              add\n              dup1\n              dup3\n              sstore\n              dup1\n              swap2\n              pop\n              pop\n              0x01\n              swap1\n              sub\n              swap1\n              0x00\n              mstore\n              keccak256(0x00, 0x20)\n              swap1\n              0x02\n              mul\n              add\n              0x00\n              swap1\n              swap2\n              swap1\n              swap2\n              swap1\n              swap2\n              pop\n              0x00\n              dup3\n              add\n              mload\n              dup2\n              0x00\n              add\n              sstore\n              0x20\n              dup3\n              add\n              mload\n              dup2\n              0x01\n              add\n              swap1\n              dup1\n              mload\n              swap1\n              0x20\n              add\n              swap1\n              tag_47\n              swap3\n              swap2\n              swap1\n              tag_48\n              jump\t// in\n            tag_47:\n              pop\n              pop\n              pop\n                /* \"contracts/simpleStorage.sol\":526:531  _name */\n              dup3\n              dup3\n                /* \"contracts/simpleStorage.sol\":509:517  idToName */\n              0x01\n                /* \"contracts/simpleStorage.sol\":509:523  idToName[_val] */\n              0x00\n                /* \"contracts/simpleStorage.sol\":518:522  _val */\n              dup8\n                /* \"contracts/simpleStorage.sol\":509:523  idToName[_val] */\n              dup2\n              mstore\n              0x20\n              add\n              swap1\n              dup2\n              mstore\n              0x20\n              add\n              0x00\n              keccak256\n                /* \"contracts/simpleStorage.sol\":509:531  idToName[_val] = _name */\n              swap2\n              swap1\n              tag_49\n              swap3\n              swap2\n              swap1\n              tag_50\n              jump\t// in\n            tag_49:\n              pop\n                /* \"contracts/simpleStorage.sol\":395:539  {\r... */\n              pop\n                /* \"contracts/simpleStorage.sol\":332:539  function addPerson(uint256 _val, string calldata _name) public {\r... */\n              pop\n              pop\n              pop\n              jump\t// out\n            tag_48:\n              dup3\n              dup1\n              sload\n              tag_51\n              swap1\n              tag_32\n              jump\t// in\n            tag_51:\n              swap1\n              0x00\n              mstore\n              keccak256(0x00, 0x20)\n              swap1\n              0x1f\n              add\n              0x20\n              swap1\n              div\n              dup2\n              add\n              swap3\n              dup3\n              tag_53\n              jumpi\n              0x00\n              dup6\n              sstore\n              jump(tag_52)\n            tag_53:\n              dup3\n              0x1f\n              lt\n              tag_54\n              jumpi\n              dup1\n              mload\n              not(0xff)\n              and\n              dup4\n              dup1\n              add\n              or\n              dup6\n              sstore\n              jump(tag_52)\n            tag_54:\n              dup3\n              dup1\n              add\n              0x01\n              add\n              dup6\n              sstore\n              dup3\n              iszero\n              tag_52\n              jumpi\n              swap2\n              dup3\n              add\n            tag_55:\n              dup3\n              dup2\n              gt\n              iszero\n              tag_56\n              jumpi\n              dup3\n              mload\n              dup3\n              sstore\n              swap2\n              0x20\n              add\n              swap2\n              swap1\n              0x01\n              add\n              swap1\n              jump(tag_55)\n            tag_56:\n            tag_52:\n              pop\n              swap1\n              pop\n              tag_57\n              swap2\n              swap1\n              tag_58\n              jump\t// in\n            tag_57:\n              pop\n              swap1\n              jump\t// out\n            tag_50:\n              dup3\n              dup1\n              sload\n              tag_59\n              swap1\n              tag_32\n              jump\t// in\n            tag_59:\n              swap1\n              0x00\n              mstore\n              keccak256(0x00, 0x20)\n              swap1\n              0x1f\n              add\n              0x20\n              swap1\n              div\n              dup2\n              add\n              swap3\n              dup3\n              tag_61\n              jumpi\n              0x00\n              dup6\n              sstore\n              jump(tag_60)\n            tag_61:\n              dup3\n              0x1f\n              lt\n              tag_62\n              jumpi\n              dup1\n              calldataload\n              not(0xff)\n              and\n              dup4\n              dup1\n              add\n              or\n              dup6\n              sstore\n              jump(tag_60)\n            tag_62:\n              dup3\n              dup1\n              add\n              0x01\n              add\n              dup6\n              sstore\n              dup3\n              iszero\n              tag_60\n              jumpi\n              swap2\n              dup3\n              add\n            tag_63:\n              dup3\n              dup2\n              gt\n              iszero\n              tag_64\n              jumpi\n              dup3\n              calldataload\n              dup3\n              sstore\n              swap2\n              0x20\n              add\n              swap2\n              swap1\n              0x01\n              add\n              swap1\n              jump(tag_63)\n            tag_64:\n            tag_60:\n              pop\n              swap1\n              pop\n              tag_65\n              swap2\n              swap1\n              tag_58\n              jump\t// in\n            tag_65:\n              pop\n              swap1\n              jump\t// out\n            tag_58:\n            tag_66:\n              dup1\n              dup3\n              gt\n              iszero\n              tag_67\n              jumpi\n              0x00\n              dup2\n              0x00\n              swap1\n              sstore\n              pop\n              0x01\n              add\n              jump(tag_66)\n            tag_67:\n              pop\n              swap1\n              jump\t// out\n                /* \"#utility.yul\":21:574   */\n            tag_69:\n                /* \"#utility.yul\":79:87   */\n              0x00\n                /* \"#utility.yul\":89:95   */\n              dup1\n                /* \"#utility.yul\":139:142   */\n              dup4\n                /* \"#utility.yul\":132:136   */\n              0x1f\n                /* \"#utility.yul\":124:130   */\n              dup5\n                /* \"#utility.yul\":120:137   */\n              add\n                /* \"#utility.yul\":116:143   */\n              slt\n                /* \"#utility.yul\":106:228   */\n              tag_71\n              jumpi\n                /* \"#utility.yul\":147:226   */\n              tag_72\n              tag_73\n              jump\t// in\n            tag_72:\n                /* \"#utility.yul\":106:228   */\n            tag_71:\n                /* \"#utility.yul\":260:266   */\n              dup3\n                /* \"#utility.yul\":247:267   */\n              calldataload\n                /* \"#utility.yul\":237:267   */\n              swap1\n              pop\n                /* \"#utility.yul\":290:308   */\n              0xffffffffffffffff\n                /* \"#utility.yul\":282:288   */\n              dup2\n                /* \"#utility.yul\":279:309   */\n              gt\n                /* \"#utility.yul\":276:393   */\n              iszero\n              tag_74\n              jumpi\n                /* \"#utility.yul\":312:391   */\n              tag_75\n              tag_76\n              jump\t// in\n            tag_75:\n                /* \"#utility.yul\":276:393   */\n            tag_74:\n                /* \"#utility.yul\":426:430   */\n              0x20\n                /* \"#utility.yul\":418:424   */\n              dup4\n                /* \"#utility.yul\":414:431   */\n              add\n                /* \"#utility.yul\":402:431   */\n              swap2\n              pop\n                /* \"#utility.yul\":480:483   */\n              dup4\n                /* \"#utility.yul\":472:476   */\n              0x01\n                /* \"#utility.yul\":464:470   */\n              dup3\n                /* \"#utility.yul\":460:477   */\n              mul\n                /* \"#utility.yul\":450:458   */\n              dup4\n                /* \"#utility.yul\":446:478   */\n              add\n                /* \"#utility.yul\":443:484   */\n              gt\n                /* \"#utility.yul\":440:568   */\n              iszero\n              tag_77\n              jumpi\n                /* \"#utility.yul\":487:566   */\n              tag_78\n              tag_79\n              jump\t// in\n            tag_78:\n                /* \"#utility.yul\":440:568   */\n            tag_77:\n                /* \"#utility.yul\":21:574   */\n              swap3\n              pop\n              swap3\n              swap1\n              pop\n              jump\t// out\n                /* \"#utility.yul\":580:719   */\n            tag_80:\n                /* \"#utility.yul\":626:631   */\n              0x00\n                /* \"#utility.yul\":664:670   */\n              dup2\n                /* \"#utility.yul\":651:671   */\n              calldataload\n                /* \"#utility.yul\":642:671   */\n              swap1\n              pop\n                /* \"#utility.yul\":680:713   */\n              tag_82\n                /* \"#utility.yul\":707:712   */\n              dup2\n                /* \"#utility.yul\":680:713   */\n              tag_83\n              jump\t// in\n            tag_82:\n                /* \"#utility.yul\":580:719   */\n              swap3\n              swap2\n              pop\n              pop\n              jump\t// out\n                /* \"#utility.yul\":725:1054   */\n            tag_14:\n                /* \"#utility.yul\":784:790   */\n              0x00\n                /* \"#utility.yul\":833:835   */\n              0x20\n                /* \"#utility.yul\":821:830   */\n              dup3\n                /* \"#utility.yul\":812:819   */\n              dup5\n                /* \"#utility.yul\":808:831   */\n              sub\n                /* \"#utility.yul\":804:836   */\n              slt\n                /* \"#utility.yul\":801:920   */\n              iszero\n              tag_85\n              jumpi\n                /* \"#utility.yul\":839:918   */\n              tag_86\n              tag_87\n              jump\t// in\n            tag_86:\n                /* \"#utility.yul\":801:920   */\n            tag_85:\n                /* \"#utility.yul\":959:960   */\n              0x00\n                /* \"#utility.yul\":984:1037   */\n              tag_88\n                /* \"#utility.yul\":1029:1036   */\n              dup5\n                /* \"#utility.yul\":1020:1026   */\n              dup3\n                /* \"#utility.yul\":1009:1018   */\n              dup6\n                /* \"#utility.yul\":1005:1027   */\n              add\n                /* \"#utility.yul\":984:1037   */\n              tag_80\n              jump\t// in\n            tag_88:\n                /* \"#utility.yul\":974:1037   */\n              swap2\n              pop\n                /* \"#utility.yul\":930:1047   */\n              pop\n                /* \"#utility.yul\":725:1054   */\n              swap3\n              swap2\n              pop\n              pop\n              jump\t// out\n                /* \"#utility.yul\":1060:1734   */\n            tag_28:\n                /* \"#utility.yul\":1140:1146   */\n              0x00\n                /* \"#utility.yul\":1148:1154   */\n              dup1\n                /* \"#utility.yul\":1156:1162   */\n              0x00\n                /* \"#utility.yul\":1205:1207   */\n              0x40\n                /* \"#utility.yul\":1193:1202   */\n              dup5\n                /* \"#utility.yul\":1184:1191   */\n              dup7\n                /* \"#utility.yul\":1180:1203   */\n              sub\n                /* \"#utility.yul\":1176:1208   */\n              slt\n                /* \"#utility.yul\":1173:1292   */\n              iszero\n              tag_90\n              jumpi\n                /* \"#utility.yul\":1211:1290   */\n              tag_91\n              tag_87\n              jump\t// in\n            tag_91:\n                /* \"#utility.yul\":1173:1292   */\n            tag_90:\n                /* \"#utility.yul\":1331:1332   */\n              0x00\n                /* \"#utility.yul\":1356:1409   */\n              tag_92\n                /* \"#utility.yul\":1401:1408   */\n              dup7\n                /* \"#utility.yul\":1392:1398   */\n              dup3\n                /* \"#utility.yul\":1381:1390   */\n              dup8\n                /* \"#utility.yul\":1377:1399   */\n              add\n                /* \"#utility.yul\":1356:1409   */\n              tag_80\n              jump\t// in\n            tag_92:\n                /* \"#utility.yul\":1346:1409   */\n              swap4\n              pop\n                /* \"#utility.yul\":1302:1419   */\n              pop\n                /* \"#utility.yul\":1486:1488   */\n              0x20\n                /* \"#utility.yul\":1475:1484   */\n              dup5\n                /* \"#utility.yul\":1471:1489   */\n              add\n                /* \"#utility.yul\":1458:1490   */\n              calldataload\n                /* \"#utility.yul\":1517:1535   */\n              0xffffffffffffffff\n                /* \"#utility.yul\":1509:1515   */\n              dup2\n                /* \"#utility.yul\":1506:1536   */\n              gt\n                /* \"#utility.yul\":1503:1620   */\n              iszero\n              tag_93\n              jumpi\n                /* \"#utility.yul\":1539:1618   */\n              tag_94\n              tag_95\n              jump\t// in\n            tag_94:\n                /* \"#utility.yul\":1503:1620   */\n            tag_93:\n                /* \"#utility.yul\":1652:1717   */\n              tag_96\n                /* \"#utility.yul\":1709:1716   */\n              dup7\n                /* \"#utility.yul\":1700:1706   */\n              dup3\n                /* \"#utility.yul\":1689:1698   */\n              dup8\n                /* \"#utility.yul\":1685:1707   */\n              add\n                /* \"#utility.yul\":1652:1717   */\n              tag_69\n              jump\t// in\n            tag_96:\n                /* \"#utility.yul\":1634:1717   */\n              swap3\n              pop\n              swap3\n              pop\n                /* \"#utility.yul\":1429:1727   */\n              pop\n                /* \"#utility.yul\":1060:1734   */\n              swap3\n              pop\n              swap3\n              pop\n              swap3\n              jump\t// out\n                /* \"#utility.yul\":1740:2104   */\n            tag_97:\n                /* \"#utility.yul\":1828:1831   */\n              0x00\n                /* \"#utility.yul\":1856:1895   */\n              tag_99\n                /* \"#utility.yul\":1889:1894   */\n              dup3\n                /* \"#utility.yul\":1856:1895   */\n              tag_100\n              jump\t// in\n            tag_99:\n                /* \"#utility.yul\":1911:1982   */\n              tag_101\n                /* \"#utility.yul\":1975:1981   */\n              dup2\n                /* \"#utility.yul\":1970:1973   */\n              dup6\n                /* \"#utility.yul\":1911:1982   */\n              tag_102\n              jump\t// in\n            tag_101:\n                /* \"#utility.yul\":1904:1982   */\n              swap4\n              pop\n                /* \"#utility.yul\":1991:2043   */\n              tag_103\n                /* \"#utility.yul\":2036:2042   */\n              dup2\n                /* \"#utility.yul\":2031:2034   */\n              dup6\n                /* \"#utility.yul\":2024:2028   */\n              0x20\n                /* \"#utility.yul\":2017:2022   */\n              dup7\n                /* \"#utility.yul\":2013:2029   */\n              add\n                /* \"#utility.yul\":1991:2043   */\n              tag_104\n              jump\t// in\n            tag_103:\n                /* \"#utility.yul\":2068:2097   */\n              tag_105\n                /* \"#utility.yul\":2090:2096   */\n              dup2\n                /* \"#utility.yul\":2068:2097   */\n              tag_106\n              jump\t// in\n            tag_105:\n                /* \"#utility.yul\":2063:2066   */\n              dup5\n                /* \"#utility.yul\":2059:2098   */\n              add\n                /* \"#utility.yul\":2052:2098   */\n              swap2\n              pop\n                /* \"#utility.yul\":1832:2104   */\n              pop\n                /* \"#utility.yul\":1740:2104   */\n              swap3\n              swap2\n              pop\n              pop\n              jump\t// out\n                /* \"#utility.yul\":2110:2228   */\n            tag_107:\n                /* \"#utility.yul\":2197:2221   */\n              tag_109\n                /* \"#utility.yul\":2215:2220   */\n              dup2\n                /* \"#utility.yul\":2197:2221   */\n              tag_110\n              jump\t// in\n            tag_109:\n                /* \"#utility.yul\":2192:2195   */\n              dup3\n                /* \"#utility.yul\":2185:2222   */\n              mstore\n                /* \"#utility.yul\":2110:2228   */\n              pop\n              pop\n              jump\t// out\n                /* \"#utility.yul\":2234:2547   */\n            tag_17:\n                /* \"#utility.yul\":2347:2351   */\n              0x00\n                /* \"#utility.yul\":2385:2387   */\n              0x20\n                /* \"#utility.yul\":2374:2383   */\n              dup3\n                /* \"#utility.yul\":2370:2388   */\n              add\n                /* \"#utility.yul\":2362:2388   */\n              swap1\n              pop\n                /* \"#utility.yul\":2434:2443   */\n              dup2\n                /* \"#utility.yul\":2428:2432   */\n              dup2\n                /* \"#utility.yul\":2424:2444   */\n              sub\n                /* \"#utility.yul\":2420:2421   */\n              0x00\n                /* \"#utility.yul\":2409:2418   */\n              dup4\n                /* \"#utility.yul\":2405:2422   */\n              add\n                /* \"#utility.yul\":2398:2445   */\n              mstore\n                /* \"#utility.yul\":2462:2540   */\n              tag_112\n                /* \"#utility.yul\":2535:2539   */\n              dup2\n                /* \"#utility.yul\":2526:2532   */\n              dup5\n                /* \"#utility.yul\":2462:2540   */\n              tag_97\n              jump\t// in\n            tag_112:\n                /* \"#utility.yul\":2454:2540   */\n              swap1\n              pop\n                /* \"#utility.yul\":2234:2547   */\n              swap3\n              swap2\n              pop\n              pop\n              jump\t// out\n                /* \"#utility.yul\":2553:2775   */\n            tag_11:\n                /* \"#utility.yul\":2646:2650   */\n              0x00\n                /* \"#utility.yul\":2684:2686   */\n              0x20\n                /* \"#utility.yul\":2673:2682   */\n              dup3\n                /* \"#utility.yul\":2669:2687   */\n              add\n                /* \"#utility.yul\":2661:2687   */\n              swap1\n              pop\n                /* \"#utility.yul\":2697:2768   */\n              tag_114\n                /* \"#utility.yul\":2765:2766   */\n              0x00\n                /* \"#utility.yul\":2754:2763   */\n              dup4\n                /* \"#utility.yul\":2750:2767   */\n              add\n                /* \"#utility.yul\":2741:2747   */\n              dup5\n                /* \"#utility.yul\":2697:2768   */\n              tag_107\n              jump\t// in\n            tag_114:\n                /* \"#utility.yul\":2553:2775   */\n              swap3\n              swap2\n              pop\n              pop\n              jump\t// out\n                /* \"#utility.yul\":2781:3204   */\n            tag_25:\n                /* \"#utility.yul\":2922:2926   */\n              0x00\n                /* \"#utility.yul\":2960:2962   */\n              0x40\n                /* \"#utility.yul\":2949:2958   */\n              dup3\n                /* \"#utility.yul\":2945:2963   */\n              add\n                /* \"#utility.yul\":2937:2963   */\n              swap1\n              pop\n                /* \"#utility.yul\":2973:3044   */\n              tag_116\n                /* \"#utility.yul\":3041:3042   */\n              0x00\n                /* \"#utility.yul\":3030:3039   */\n              dup4\n                /* \"#utility.yul\":3026:3043   */\n              add\n                /* \"#utility.yul\":3017:3023   */\n              dup6\n                /* \"#utility.yul\":2973:3044   */\n              tag_107\n              jump\t// in\n            tag_116:\n                /* \"#utility.yul\":3091:3100   */\n              dup2\n                /* \"#utility.yul\":3085:3089   */\n              dup2\n                /* \"#utility.yul\":3081:3101   */\n              sub\n                /* \"#utility.yul\":3076:3078   */\n              0x20\n                /* \"#utility.yul\":3065:3074   */\n              dup4\n                /* \"#utility.yul\":3061:3079   */\n              add\n                /* \"#utility.yul\":3054:3102   */\n              mstore\n                /* \"#utility.yul\":3119:3197   */\n              tag_117\n                /* \"#utility.yul\":3192:3196   */\n              dup2\n                /* \"#utility.yul\":3183:3189   */\n              dup5\n                /* \"#utility.yul\":3119:3197   */\n              tag_97\n              jump\t// in\n            tag_117:\n                /* \"#utility.yul\":3111:3197   */\n              swap1\n              pop\n                /* \"#utility.yul\":2781:3204   */\n              swap4\n              swap3\n              pop\n              pop\n              pop\n              jump\t// out\n                /* \"#utility.yul\":3291:3390   */\n            tag_100:\n                /* \"#utility.yul\":3343:3349   */\n              0x00\n                /* \"#utility.yul\":3377:3382   */\n              dup2\n                /* \"#utility.yul\":3371:3383   */\n              mload\n                /* \"#utility.yul\":3361:3383   */\n              swap1\n              pop\n                /* \"#utility.yul\":3291:3390   */\n              swap2\n              swap1\n              pop\n              jump\t// out\n                /* \"#utility.yul\":3396:3565   */\n            tag_102:\n                /* \"#utility.yul\":3480:3491   */\n              0x00\n                /* \"#utility.yul\":3514:3520   */\n              dup3\n                /* \"#utility.yul\":3509:3512   */\n              dup3\n                /* \"#utility.yul\":3502:3521   */\n              mstore\n                /* \"#utility.yul\":3554:3558   */\n              0x20\n                /* \"#utility.yul\":3549:3552   */\n              dup3\n                /* \"#utility.yul\":3545:3559   */\n              add\n                /* \"#utility.yul\":3530:3559   */\n              swap1\n              pop\n                /* \"#utility.yul\":3396:3565   */\n              swap3\n              swap2\n              pop\n              pop\n              jump\t// out\n                /* \"#utility.yul\":3571:3648   */\n            tag_110:\n                /* \"#utility.yul\":3608:3615   */\n              0x00\n                /* \"#utility.yul\":3637:3642   */\n              dup2\n                /* \"#utility.yul\":3626:3642   */\n              swap1\n              pop\n                /* \"#utility.yul\":3571:3648   */\n              swap2\n              swap1\n              pop\n              jump\t// out\n                /* \"#utility.yul\":3654:3961   */\n            tag_104:\n                /* \"#utility.yul\":3722:3723   */\n              0x00\n                /* \"#utility.yul\":3732:3845   */\n            tag_124:\n                /* \"#utility.yul\":3746:3752   */\n              dup4\n                /* \"#utility.yul\":3743:3744   */\n              dup2\n                /* \"#utility.yul\":3740:3753   */\n              lt\n                /* \"#utility.yul\":3732:3845   */\n              iszero\n              tag_126\n              jumpi\n                /* \"#utility.yul\":3831:3832   */\n              dup1\n                /* \"#utility.yul\":3826:3829   */\n              dup3\n                /* \"#utility.yul\":3822:3833   */\n              add\n                /* \"#utility.yul\":3816:3834   */\n              mload\n                /* \"#utility.yul\":3812:3813   */\n              dup2\n                /* \"#utility.yul\":3807:3810   */\n              dup5\n                /* \"#utility.yul\":3803:3814   */\n              add\n                /* \"#utility.yul\":3796:3835   */\n              mstore\n                /* \"#utility.yul\":3768:3770   */\n              0x20\n                /* \"#utility.yul\":3765:3766   */\n              dup2\n                /* \"#utility.yul\":3761:3771   */\n              add\n                /* \"#utility.yul\":3756:3771   */\n              swap1\n              pop\n                /* \"#utility.yul\":3732:3845   */\n              jump(tag_124)\n            tag_126:\n                /* \"#utility.yul\":3863:3869   */\n              dup4\n                /* \"#utility.yul\":3860:3861   */\n              dup2\n                /* \"#utility.yul\":3857:3870   */\n              gt\n                /* \"#utility.yul\":3854:3955   */\n              iszero\n              tag_127\n              jumpi\n                /* \"#utility.yul\":3943:3944   */\n              0x00\n                /* \"#utility.yul\":3934:3940   */\n              dup5\n                /* \"#utility.yul\":3929:3932   */\n              dup5\n                /* \"#utility.yul\":3925:3941   */\n              add\n                /* \"#utility.yul\":3918:3945   */\n              mstore\n                /* \"#utility.yul\":3854:3955   */\n            tag_127:\n                /* \"#utility.yul\":3703:3961   */\n              pop\n                /* \"#utility.yul\":3654:3961   */\n              pop\n              pop\n              pop\n              jump\t// out\n                /* \"#utility.yul\":3967:4287   */\n            tag_32:\n                /* \"#utility.yul\":4011:4017   */\n              0x00\n                /* \"#utility.yul\":4048:4049   */\n              0x02\n                /* \"#utility.yul\":4042:4046   */\n              dup3\n                /* \"#utility.yul\":4038:4050   */\n              div\n                /* \"#utility.yul\":4028:4050   */\n              swap1\n              pop\n                /* \"#utility.yul\":4095:4096   */\n              0x01\n                /* \"#utility.yul\":4089:4093   */\n              dup3\n                /* \"#utility.yul\":4085:4097   */\n              and\n                /* \"#utility.yul\":4116:4134   */\n              dup1\n                /* \"#utility.yul\":4106:4187   */\n              tag_129\n              jumpi\n                /* \"#utility.yul\":4172:4176   */\n              0x7f\n                /* \"#utility.yul\":4164:4170   */\n              dup3\n                /* \"#utility.yul\":4160:4177   */\n              and\n                /* \"#utility.yul\":4150:4177   */\n              swap2\n              pop\n                /* \"#utility.yul\":4106:4187   */\n            tag_129:\n                /* \"#utility.yul\":4234:4236   */\n              0x20\n                /* \"#utility.yul\":4226:4232   */\n              dup3\n                /* \"#utility.yul\":4223:4237   */\n              lt\n                /* \"#utility.yul\":4203:4221   */\n              dup2\n                /* \"#utility.yul\":4200:4238   */\n              eq\n                /* \"#utility.yul\":4197:4281   */\n              iszero\n              tag_130\n              jumpi\n                /* \"#utility.yul\":4253:4271   */\n              tag_131\n              tag_132\n              jump\t// in\n            tag_131:\n                /* \"#utility.yul\":4197:4281   */\n            tag_130:\n                /* \"#utility.yul\":4018:4287   */\n              pop\n                /* \"#utility.yul\":3967:4287   */\n              swap2\n              swap1\n              pop\n              jump\t// out\n                /* \"#utility.yul\":4293:4473   */\n            tag_132:\n                /* \"#utility.yul\":4341:4418   */\n              0x4e487b7100000000000000000000000000000000000000000000000000000000\n                /* \"#utility.yul\":4338:4339   */\n              0x00\n                /* \"#utility.yul\":4331:4419   */\n              mstore\n                /* \"#utility.yul\":4438:4442   */\n              0x22\n                /* \"#utility.yul\":4435:4436   */\n              0x04\n                /* \"#utility.yul\":4428:4443   */\n              mstore\n                /* \"#utility.yul\":4462:4466   */\n              0x24\n                /* \"#utility.yul\":4459:4460   */\n              0x00\n                /* \"#utility.yul\":4452:4467   */\n              revert\n                /* \"#utility.yul\":4479:4596   */\n            tag_76:\n                /* \"#utility.yul\":4588:4589   */\n              0x00\n                /* \"#utility.yul\":4585:4586   */\n              dup1\n                /* \"#utility.yul\":4578:4590   */\n              revert\n                /* \"#utility.yul\":4602:4719   */\n            tag_73:\n                /* \"#utility.yul\":4711:4712   */\n              0x00\n                /* \"#utility.yul\":4708:4709   */\n              dup1\n                /* \"#utility.yul\":4701:4713   */\n              revert\n                /* \"#utility.yul\":4725:4842   */\n            tag_79:\n                /* \"#utility.yul\":4834:4835   */\n              0x00\n                /* \"#utility.yul\":4831:4832   */\n              dup1\n                /* \"#utility.yul\":4824:4836   */\n              revert\n                /* \"#utility.yul\":4848:4965   */\n            tag_95:\n                /* \"#utility.yul\":4957:4958   */\n              0x00\n                /* \"#utility.yul\":4954:4955   */\n              dup1\n                /* \"#utility.yul\":4947:4959   */\n              revert\n                /* \"#utility.yul\":4971:5088   */\n            tag_87:\n                /* \"#utility.yul\":5080:5081   */\n              0x00\n                /* \"#utility.yul\":5077:5078   */\n              dup1\n                /* \"#utility.yul\":5070:5082   */\n              revert\n                /* \"#utility.yul\":5094:5196   */\n            tag_106:\n                /* \"#utility.yul\":5135:5141   */\n              0x00\n                /* \"#utility.yul\":5186:5188   */\n              0x1f\n                /* \"#utility.yul\":5182:5189   */\n              not\n                /* \"#utility.yul\":5177:5179   */\n              0x1f\n                /* \"#utility.yul\":5170:5175   */\n              dup4\n                /* \"#utility.yul\":5166:5180   */\n              add\n                /* \"#utility.yul\":5162:5190   */\n              and\n                /* \"#utility.yul\":5152:5190   */\n              swap1\n              pop\n                /* \"#utility.yul\":5094:5196   */\n              swap2\n              swap1\n              pop\n              jump\t// out\n                /* \"#utility.yul\":5202:5324   */\n            tag_83:\n                /* \"#utility.yul\":5275:5299   */\n              tag_141\n                /* \"#utility.yul\":5293:5298   */\n              dup2\n                /* \"#utility.yul\":5275:5299   */\n              tag_110\n              jump\t// in\n            tag_141:\n                /* \"#utility.yul\":5268:5273   */\n              dup2\n                /* \"#utility.yul\":5265:5300   */\n              eq\n                /* \"#utility.yul\":5255:5318   */\n              tag_142\n              jumpi\n                /* \"#utility.yul\":5314:5315   */\n              0x00\n                /* \"#utility.yul\":5311:5312   */\n              dup1\n                /* \"#utility.yul\":5304:5316   */\n              revert\n                /* \"#utility.yul\":5255:5318   */\n            tag_142:\n                /* \"#utility.yul\":5202:5324   */\n              pop\n              jump\t// out\n\n            auxdata: 0xa2646970667358221220232e113604994d5a7bc62535feef7404bd9d1820b3b3b137cebf231e7cceb5c564736f6c63430008070033\n        }\n    }\n\n    auxdata: 0xa264697066735822122058cab703116df7c1018f2ad3d9b15301b573914808bf0ddea6c66cf8d32a289664736f6c63430008070033\n}\n",
				"bytecode": {
					"linkReferences": {},
					"object": "608060405234801561001057600080fd5b50610caf806100206000396000f3fe608060405234801561001057600080fd5b506004361061004c5760003560e01c80631563700f146100515780631dda65411461006d578063c5f19c2014610077578063f5daaa02146100a7575b600080fd5b61006b600480360381019061006691906103b6565b6100d7565b005b610075610189565b005b610091600480360381019061008c919061035c565b61021c565b60405161009e919061042f565b60405180910390f35b6100c160048036038101906100bc919061035c565b6102e6565b6040516100ce9190610414565b60405180910390f35b60008083815481106100ec576100eb6104aa565b5b9060005260206000200160009054906101000a900473ffffffffffffffffffffffffffffffffffffffff1690508073ffffffffffffffffffffffffffffffffffffffff16636057361d836040518263ffffffff1660e01b8152600401610152919061042f565b600060405180830381600087803b15801561016c57600080fd5b505af1158015610180573d6000803e3d6000fd5b50505050505050565b600060405161019790610325565b604051809103906000f0801580156101b3573d6000803e3d6000fd5b5090506000819080600181540180825580915050600190039060005260206000200160009091909190916101000a81548173ffffffffffffffffffffffffffffffffffffffff021916908373ffffffffffffffffffffffffffffffffffffffff16021790555050565b60008060008381548110610233576102326104aa565b5b9060005260206000200160009054906101000a900473ffffffffffffffffffffffffffffffffffffffff1690508073ffffffffffffffffffffffffffffffffffffffff16632e64cec16040518163ffffffff1660e01b815260040160206040518083038186803b1580156102a657600080fd5b505afa1580156102ba573d6000803e3d6000fd5b505050506040513d601f19601f820116820180604052508101906102de9190610389565b915050919050565b600081815481106102f657600080fd5b906000526020600020016000915054906101000a900473ffffffffffffffffffffffffffffffffffffffff1681565b610784806104f683390190565b600081359050610341816104de565b92915050565b600081519050610356816104de565b92915050565b600060208284031215610372576103716104d9565b5b600061038084828501610332565b91505092915050565b60006020828403121561039f5761039e6104d9565b5b60006103ad84828501610347565b91505092915050565b600080604083850312156103cd576103cc6104d9565b5b60006103db85828601610332565b92505060206103ec85828601610332565b9150509250929050565b6103ff81610474565b82525050565b61040e8161046a565b82525050565b600060208201905061042960008301846103f6565b92915050565b60006020820190506104446000830184610405565b92915050565b600073ffffffffffffffffffffffffffffffffffffffff82169050919050565b6000819050919050565b600061047f82610486565b9050919050565b600061049182610498565b9050919050565b60006104a38261044a565b9050919050565b7f4e487b7100000000000000000000000000000000000000000000000000000000600052603260045260246000fd5b600080fd5b6104e78161046a565b81146104f257600080fd5b5056fe608060405234801561001057600080fd5b50610764806100206000396000f3fe608060405234801561001057600080fd5b50600436106100575760003560e01c80632e64cec11461005c578063364410b31461007a5780636057361d146100aa5780639e7a13ad146100c6578063bc832d4e146100f7575b600080fd5b610064610113565b60405161007191906105e8565b60405180910390f35b610094600480360381019061008f91906104f1565b61011c565b6040516100a191906105c6565b60405180910390f35b6100c460048036038101906100bf91906104f1565b6101bc565b005b6100e060048036038101906100db91906104f1565b6101c6565b6040516100ee929190610603565b60405180910390f35b610111600480360381019061010c919061051e565b610282565b005b60008054905090565b6001602052806000526040600020600091509050805461013b9061068c565b80601f01602080910402602001604051908101604052809291908181526020018280546101679061068c565b80156101b45780601f10610189576101008083540402835291602001916101b4565b820191906000526020600020905b81548152906001019060200180831161019757829003601f168201915b505050505081565b8060008190555050565b600281815481106101d657600080fd5b90600052602060002090600202016000915090508060000154908060010180546101ff9061068c565b80601f016020809104026020016040519081016040528092919081815260200182805461022b9061068c565b80156102785780601f1061024d57610100808354040283529160200191610278565b820191906000526020600020905b81548152906001019060200180831161025b57829003601f168201915b5050505050905082565b6000604051806040016040528085815260200184848080601f016020809104026020016040519081016040528093929190818152602001838380828437600081840152601f19601f820116905080830192505050505050508152509050600281908060018154018082558091505060019003906000526020600020906002020160009091909190915060008201518160000155602082015181600101908051906020019061033192919061035d565b50505082826001600087815260200190815260200160002091906103569291906103e3565b5050505050565b8280546103699061068c565b90600052602060002090601f01602090048101928261038b57600085556103d2565b82601f106103a457805160ff19168380011785556103d2565b828001600101855582156103d2579182015b828111156103d15782518255916020019190600101906103b6565b5b5090506103df9190610469565b5090565b8280546103ef9061068c565b90600052602060002090601f0160209004810192826104115760008555610458565b82601f1061042a57803560ff1916838001178555610458565b82800160010185558215610458579182015b8281111561045757823582559160200191906001019061043c565b5b5090506104659190610469565b5090565b5b8082111561048257600081600090555060010161046a565b5090565b60008083601f84011261049c5761049b6106f2565b5b8235905067ffffffffffffffff8111156104b9576104b86106ed565b5b6020830191508360018202830111156104d5576104d46106f7565b5b9250929050565b6000813590506104eb81610717565b92915050565b60006020828403121561050757610506610701565b5b6000610515848285016104dc565b91505092915050565b60008060006040848603121561053757610536610701565b5b6000610545868287016104dc565b935050602084013567ffffffffffffffff811115610566576105656106fc565b5b61057286828701610486565b92509250509250925092565b600061058982610633565b610593818561063e565b93506105a3818560208601610659565b6105ac81610706565b840191505092915050565b6105c08161064f565b82525050565b600060208201905081810360008301526105e0818461057e565b905092915050565b60006020820190506105fd60008301846105b7565b92915050565b600060408201905061061860008301856105b7565b818103602083015261062a818461057e565b90509392505050565b600081519050919050565b600082825260208201905092915050565b6000819050919050565b60005b8381101561067757808201518184015260208101905061065c565b83811115610686576000848401525b50505050565b600060028204905060018216806106a457607f821691505b602082108114156106b8576106b76106be565b5b50919050565b7f4e487b7100000000000000000000000000000000000000000000000000000000600052602260045260246000fd5b600080fd5b600080fd5b600080fd5b600080fd5b600080fd5b6000601f19601f8301169050919050565b6107208161064f565b811461072b57600080fd5b5056fea2646970667358221220232e113604994d5a7bc62535feef7404bd9d1820b3b3b137cebf231e7cceb5c564736f6c63430008070033a264697066735822122058cab703116df7c1018f2ad3d9b15301b573914808bf0ddea6c66cf8d32a289664736f6c63430008070033",
					"opcodes": "PUSH1 0x80 PUSH1 0x40 MSTORE CALLVALUE DUP1 ISZERO PUSH2 0x10 JUMPI PUSH1 0x0 DUP1 REVERT JUMPDEST POP PUSH2 0xCAF DUP1 PUSH2 0x20 PUSH1 0x0 CODECOPY PUSH1 0x0 RETURN INVALID PUSH1 0x80 PUSH1 0x40 MSTORE CALLVALUE DUP1 ISZERO PUSH2 0x10 JUMPI PUSH1 0x0 DUP1 REVERT JUMPDEST POP PUSH1 0x4 CALLDATASIZE LT PUSH2 0x4C JUMPI PUSH1 0x0 CALLDATALOAD PUSH1 0xE0 SHR DUP1 PUSH4 0x1563700F EQ PUSH2 0x51 JUMPI DUP1 PUSH4 0x1DDA6541 EQ PUSH2 0x6D JUMPI DUP1 PUSH4 0xC5F19C20 EQ PUSH2 0x77 JUMPI DUP1 PUSH4 0xF5DAAA02 EQ PUSH2 0xA7 JUMPI JUMPDEST PUSH1 0x0 DUP1 REVERT JUMPDEST PUSH2 0x6B PUSH1 0x4 DUP1 CALLDATASIZE SUB DUP2 ADD SWAP1 PUSH2 0x66 SWAP2 SWAP1 PUSH2 0x3B6 JUMP JUMPDEST PUSH2 0xD7 JUMP JUMPDEST STOP JUMPDEST PUSH2 0x75 PUSH2 0x189 JUMP JUMPDEST STOP JUMPDEST PUSH2 0x91 PUSH1 0x4 DUP1 CALLDATASIZE SUB DUP2 ADD SWAP1 PUSH2 0x8C SWAP2 SWAP1 PUSH2 0x35C JUMP JUMPDEST PUSH2 0x21C JUMP JUMPDEST PUSH1 0x40 MLOAD PUSH2 0x9E SWAP2 SWAP1 PUSH2 0x42F JUMP JUMPDEST PUSH1 0x40 MLOAD DUP1 SWAP2 SUB SWAP1 RETURN JUMPDEST PUSH2 0xC1 PUSH1 0x4 DUP1 CALLDATASIZE SUB DUP2 ADD SWAP1 PUSH2 0xBC SWAP2 SWAP1 PUSH2 0x35C JUMP JUMPDEST PUSH2 0x2E6 JUMP JUMPDEST PUSH1 0x40 MLOAD PUSH2 0xCE SWAP2 SWAP1 PUSH2 0x414 JUMP JUMPDEST PUSH1 0x40 MLOAD DUP1 SWAP2 SUB SWAP1 RETURN JUMPDEST PUSH1 0x0 DUP1 DUP4 DUP2 SLOAD DUP2 LT PUSH2 0xEC JUMPI PUSH2 0xEB PUSH2 0x4AA JUMP JUMPDEST JUMPDEST SWAP1 PUSH1 0x0 MSTORE PUSH1 0x20 PUSH1 0x0 KECCAK256 ADD PUSH1 0x0 SWAP1 SLOAD SWAP1 PUSH2 0x100 EXP SWAP1 DIV PUSH20 0xFFFFFFFFFFFFFFFFFFFFFFFFFFFFFFFFFFFFFFFF AND SWAP1 POP DUP1 PUSH20 0xFFFFFFFFFFFFFFFFFFFFFFFFFFFFFFFFFFFFFFFF AND PUSH4 0x6057361D DUP4 PUSH1 0x40 MLOAD DUP3 PUSH4 0xFFFFFFFF AND PUSH1 0xE0 SHL DUP2 MSTORE PUSH1 0x4 ADD PUSH2 0x152 SWAP2 SWAP1 PUSH2 0x42F JUMP JUMPDEST PUSH1 0x0 PUSH1 0x40 MLOAD DUP1 DUP4 SUB DUP2 PUSH1 0x0 DUP8 DUP1 EXTCODESIZE ISZERO DUP1 ISZERO PUSH2 0x16C JUMPI PUSH1 0x0 DUP1 REVERT JUMPDEST POP GAS CALL ISZERO DUP1 ISZERO PUSH2 0x180 JUMPI RETURNDATASIZE PUSH1 0x0 DUP1 RETURNDATACOPY RETURNDATASIZE PUSH1 0x0 REVERT JUMPDEST POP POP POP POP POP POP POP JUMP JUMPDEST PUSH1 0x0 PUSH1 0x40 MLOAD PUSH2 0x197 SWAP1 PUSH2 0x325 JUMP JUMPDEST PUSH1 0x40 MLOAD DUP1 SWAP2 SUB SWAP1 PUSH1 0x0 CREATE DUP1 ISZERO DUP1 ISZERO PUSH2 0x1B3 JUMPI RETURNDATASIZE PUSH1 0x0 DUP1 RETURNDATACOPY RETURNDATASIZE PUSH1 0x0 REVERT JUMPDEST POP SWAP1 POP PUSH1 0x0 DUP2 SWAP1 DUP1 PUSH1 0x1 DUP2 SLOAD ADD DUP1 DUP3 SSTORE DUP1 SWAP2 POP POP PUSH1 0x1 SWAP1 SUB SWAP1 PUSH1 0x0 MSTORE PUSH1 0x20 PUSH1 0x0 KECCAK256 ADD PUSH1 0x0 SWAP1 SWAP2 SWAP1 SWAP2 SWAP1 SWAP2 PUSH2 0x100 EXP DUP2 SLOAD DUP2 PUSH20 0xFFFFFFFFFFFFFFFFFFFFFFFFFFFFFFFFFFFFFFFF MUL NOT AND SWAP1 DUP4 PUSH20 0xFFFFFFFFFFFFFFFFFFFFFFFFFFFFFFFFFFFFFFFF AND MUL OR SWAP1 SSTORE POP POP JUMP JUMPDEST PUSH1 0x0 DUP1 PUSH1 0x0 DUP4 DUP2 SLOAD DUP2 LT PUSH2 0x233 JUMPI PUSH2 0x232 PUSH2 0x4AA JUMP JUMPDEST JUMPDEST SWAP1 PUSH1 0x0 MSTORE PUSH1 0x20 PUSH1 0x0 KECCAK256 ADD PUSH1 0x0 SWAP1 SLOAD SWAP1 PUSH2 0x100 EXP SWAP1 DIV PUSH20 0xFFFFFFFFFFFFFFFFFFFFFFFFFFFFFFFFFFFFFFFF AND SWAP1 POP DUP1 PUSH20 0xFFFFFFFFFFFFFFFFFFFFFFFFFFFFFFFFFFFFFFFF AND PUSH4 0x2E64CEC1 PUSH1 0x40 MLOAD DUP2 PUSH4 0xFFFFFFFF AND PUSH1 0xE0 SHL DUP2 MSTORE PUSH1 0x4 ADD PUSH1 0x20 PUSH1 0x40 MLOAD DUP1 DUP4 SUB DUP2 DUP7 DUP1 EXTCODESIZE ISZERO DUP1 ISZERO PUSH2 0x2A6 JUMPI PUSH1 0x0 DUP1 REVERT JUMPDEST POP GAS STATICCALL ISZERO DUP1 ISZERO PUSH2 0x2BA JUMPI RETURNDATASIZE PUSH1 0x0 DUP1 RETURNDATACOPY RETURNDATASIZE PUSH1 0x0 REVERT JUMPDEST POP POP POP POP PUSH1 0x40 MLOAD RETURNDATASIZE PUSH1 0x1F NOT PUSH1 0x1F DUP3 ADD AND DUP3 ADD DUP1 PUSH1 0x40 MSTORE POP DUP2 ADD SWAP1 PUSH2 0x2DE SWAP2 SWAP1 PUSH2 0x389 JUMP JUMPDEST SWAP2 POP POP SWAP2 SWAP1 POP JUMP JUMPDEST PUSH1 0x0 DUP2 DUP2 SLOAD DUP2 LT PUSH2 0x2F6 JUMPI PUSH1 0x0 DUP1 REVERT JUMPDEST SWAP1 PUSH1 0x0 MSTORE PUSH1 0x20 PUSH1 0x0 KECCAK256 ADD PUSH1 0x0 SWAP2 POP SLOAD SWAP1 PUSH2 0x100 EXP SWAP1 DIV PUSH20 0xFFFFFFFFFFFFFFFFFFFFFFFFFFFFFFFFFFFFFFFF AND DUP2 JUMP JUMPDEST PUSH2 0x784 DUP1 PUSH2 0x4F6 DUP4 CODECOPY ADD SWAP1 JUMP JUMPDEST PUSH1 0x0 DUP2 CALLDATALOAD SWAP1 POP PUSH2 0x341 DUP2 PUSH2 0x4DE JUMP JUMPDEST SWAP3 SWAP2 POP POP JUMP JUMPDEST PUSH1 0x0 DUP2 MLOAD SWAP1 POP PUSH2 0x356 DUP2 PUSH2 0x4DE JUMP JUMPDEST SWAP3 SWAP2 POP POP JUMP JUMPDEST PUSH1 0x0 PUSH1 0x20 DUP3 DUP5 SUB SLT ISZERO PUSH2 0x372 JUMPI PUSH2 0x371 PUSH2 0x4D9 JUMP JUMPDEST JUMPDEST PUSH1 0x0 PUSH2 0x380 DUP5 DUP3 DUP6 ADD PUSH2 0x332 JUMP JUMPDEST SWAP2 POP POP SWAP3 SWAP2 POP POP JUMP JUMPDEST PUSH1 0x0 PUSH1 0x20 DUP3 DUP5 SUB SLT ISZERO PUSH2 0x39F JUMPI PUSH2 0x39E PUSH2 0x4D9 JUMP JUMPDEST JUMPDEST PUSH1 0x0 PUSH2 0x3AD DUP5 DUP3 DUP6 ADD PUSH2 0x347 JUMP JUMPDEST SWAP2 POP POP SWAP3 SWAP2 POP POP JUMP JUMPDEST PUSH1 0x0 DUP1 PUSH1 0x40 DUP4 DUP6 SUB SLT ISZERO PUSH2 0x3CD JUMPI PUSH2 0x3CC PUSH2 0x4D9 JUMP JUMPDEST JUMPDEST PUSH1 0x0 PUSH2 0x3DB DUP6 DUP3 DUP7 ADD PUSH2 0x332 JUMP JUMPDEST SWAP3 POP POP PUSH1 0x20 PUSH2 0x3EC DUP6 DUP3 DUP7 ADD PUSH2 0x332 JUMP JUMPDEST SWAP2 POP POP SWAP3 POP SWAP3 SWAP1 POP JUMP JUMPDEST PUSH2 0x3FF DUP2 PUSH2 0x474 JUMP JUMPDEST DUP3 MSTORE POP POP JUMP JUMPDEST PUSH2 0x40E DUP2 PUSH2 0x46A JUMP JUMPDEST DUP3 MSTORE POP POP JUMP JUMPDEST PUSH1 0x0 PUSH1 0x20 DUP3 ADD SWAP1 POP PUSH2 0x429 PUSH1 0x0 DUP4 ADD DUP5 PUSH2 0x3F6 JUMP JUMPDEST SWAP3 SWAP2 POP POP JUMP JUMPDEST PUSH1 0x0 PUSH1 0x20 DUP3 ADD SWAP1 POP PUSH2 0x444 PUSH1 0x0 DUP4 ADD DUP5 PUSH2 0x405 JUMP JUMPDEST SWAP3 SWAP2 POP POP JUMP JUMPDEST PUSH1 0x0 PUSH20 0xFFFFFFFFFFFFFFFFFFFFFFFFFFFFFFFFFFFFFFFF DUP3 AND SWAP1 POP SWAP2 SWAP1 POP JUMP JUMPDEST PUSH1 0x0 DUP2 SWAP1 POP SWAP2 SWAP1 POP JUMP JUMPDEST PUSH1 0x0 PUSH2 0x47F DUP3 PUSH2 0x486 JUMP JUMPDEST SWAP1 POP SWAP2 SWAP1 POP JUMP JUMPDEST PUSH1 0x0 PUSH2 0x491 DUP3 PUSH2 0x498 JUMP JUMPDEST SWAP1 POP SWAP2 SWAP1 POP JUMP JUMPDEST PUSH1 0x0 PUSH2 0x4A3 DUP3 PUSH2 0x44A JUMP JUMPDEST SWAP1 POP SWAP2 SWAP1 POP JUMP JUMPDEST PUSH32 0x4E487B7100000000000000000000000000000000000000000000000000000000 PUSH1 0x0 MSTORE PUSH1 0x32 PUSH1 0x4 MSTORE PUSH1 0x24 PUSH1 0x0 REVERT JUMPDEST PUSH1 0x0 DUP1 REVERT JUMPDEST PUSH2 0x4E7 DUP2 PUSH2 0x46A JUMP JUMPDEST DUP2 EQ PUSH2 0x4F2 JUMPI PUSH1 0x0 DUP1 REVERT JUMPDEST POP JUMP INVALID PUSH1 0x80 PUSH1 0x40 MSTORE CALLVALUE DUP1 ISZERO PUSH2 0x10 JUMPI PUSH1 0x0 DUP1 REVERT JUMPDEST POP PUSH2 0x764 DUP1 PUSH2 0x20 PUSH1 0x0 CODECOPY PUSH1 0x0 RETURN INVALID PUSH1 0x80 PUSH1 0x40 MSTORE CALLVALUE DUP1 ISZERO PUSH2 0x10 JUMPI PUSH1 0x0 DUP1 REVERT JUMPDEST POP PUSH1 0x4 CALLDATASIZE LT PUSH2 0x57 JUMPI PUSH1 0x0 CALLDATALOAD PUSH1 0xE0 SHR DUP1 PUSH4 0x2E64CEC1 EQ PUSH2 0x5C JUMPI DUP1 PUSH4 0x364410B3 EQ PUSH2 0x7A JUMPI DUP1 PUSH4 0x6057361D EQ PUSH2 0xAA JUMPI DUP1 PUSH4 0x9E7A13AD EQ PUSH2 0xC6 JUMPI DUP1 PUSH4 0xBC832D4E EQ PUSH2 0xF7 JUMPI JUMPDEST PUSH1 0x0 DUP1 REVERT JUMPDEST PUSH2 0x64 PUSH2 0x113 JUMP JUMPDEST PUSH1 0x40 MLOAD PUSH2 0x71 SWAP2 SWAP1 PUSH2 0x5E8 JUMP JUMPDEST PUSH1 0x40 MLOAD DUP1 SWAP2 SUB SWAP1 RETURN JUMPDEST PUSH2 0x94 PUSH1 0x4 DUP1 CALLDATASIZE SUB DUP2 ADD SWAP1 PUSH2 0x8F SWAP2 SWAP1 PUSH2 0x4F1 JUMP JUMPDEST PUSH2 0x11C JUMP JUMPDEST PUSH1 0x40 MLOAD PUSH2 0xA1 SWAP2 SWAP1 PUSH2 0x5C6 JUMP JUMPDEST PUSH1 0x40 MLOAD DUP1 SWAP2 SUB SWAP1 RETURN JUMPDEST PUSH2 0xC4 PUSH1 0x4 DUP1 CALLDATASIZE SUB DUP2 ADD SWAP1 PUSH2 0xBF SWAP2 SWAP1 PUSH2 0x4F1 JUMP JUMPDEST PUSH2 0x1BC JUMP JUMPDEST STOP JUMPDEST PUSH2 0xE0 PUSH1 0x4 DUP1 CALLDATASIZE SUB DUP2 ADD SWAP1 PUSH2 0xDB SWAP2 SWAP1 PUSH2 0x4F1 JUMP JUMPDEST PUSH2 0x1C6 JUMP JUMPDEST PUSH1 0x40 MLOAD PUSH2 0xEE SWAP3 SWAP2 SWAP1 PUSH2 0x603 JUMP JUMPDEST PUSH1 0x40 MLOAD DUP1 SWAP2 SUB SWAP1 RETURN JUMPDEST PUSH2 0x111 PUSH1 0x4 DUP1 CALLDATASIZE SUB DUP2 ADD SWAP1 PUSH2 0x10C SWAP2 SWAP1 PUSH2 0x51E JUMP JUMPDEST PUSH2 0x282 JUMP JUMPDEST STOP JUMPDEST PUSH1 0x0 DUP1 SLOAD SWAP1 POP SWAP1 JUMP JUMPDEST PUSH1 0x1 PUSH1 0x20 MSTORE DUP1 PUSH1 0x0 MSTORE PUSH1 0x40 PUSH1 0x0 KECCAK256 PUSH1 0x0 SWAP2 POP SWAP1 POP DUP1 SLOAD PUSH2 0x13B SWAP1 PUSH2 0x68C JUMP JUMPDEST DUP1 PUSH1 0x1F ADD PUSH1 0x20 DUP1 SWAP2 DIV MUL PUSH1 0x20 ADD PUSH1 0x40 MLOAD SWAP1 DUP2 ADD PUSH1 0x40 MSTORE DUP1 SWAP3 SWAP2 SWAP1 DUP2 DUP2 MSTORE PUSH1 0x20 ADD DUP3 DUP1 SLOAD PUSH2 0x167 SWAP1 PUSH2 0x68C JUMP JUMPDEST DUP1 ISZERO PUSH2 0x1B4 JUMPI DUP1 PUSH1 0x1F LT PUSH2 0x189 JUMPI PUSH2 0x100 DUP1 DUP4 SLOAD DIV MUL DUP4 MSTORE SWAP2 PUSH1 0x20 ADD SWAP2 PUSH2 0x1B4 JUMP JUMPDEST DUP3 ADD SWAP2 SWAP1 PUSH1 0x0 MSTORE PUSH1 0x20 PUSH1 0x0 KECCAK256 SWAP1 JUMPDEST DUP2 SLOAD DUP2 MSTORE SWAP1 PUSH1 0x1 ADD SWAP1 PUSH1 0x20 ADD DUP1 DUP4 GT PUSH2 0x197 JUMPI DUP3 SWAP1 SUB PUSH1 0x1F AND DUP3 ADD SWAP2 JUMPDEST POP POP POP POP POP DUP2 JUMP JUMPDEST DUP1 PUSH1 0x0 DUP2 SWAP1 SSTORE POP POP JUMP JUMPDEST PUSH1 0x2 DUP2 DUP2 SLOAD DUP2 LT PUSH2 0x1D6 JUMPI PUSH1 0x0 DUP1 REVERT JUMPDEST SWAP1 PUSH1 0x0 MSTORE PUSH1 0x20 PUSH1 0x0 KECCAK256 SWAP1 PUSH1 0x2 MUL ADD PUSH1 0x0 SWAP2 POP SWAP1 POP DUP1 PUSH1 0x0 ADD SLOAD SWAP1 DUP1 PUSH1 0x1 ADD DUP1 SLOAD PUSH2 0x1FF SWAP1 PUSH2 0x68C JUMP JUMPDEST DUP1 PUSH1 0x1F ADD PUSH1 0x20 DUP1 SWAP2 DIV MUL PUSH1 0x20 ADD PUSH1 0x40 MLOAD SWAP1 DUP2 ADD PUSH1 0x40 MSTORE DUP1 SWAP3 SWAP2 SWAP1 DUP2 DUP2 MSTORE PUSH1 0x20 ADD DUP3 DUP1 SLOAD PUSH2 0x22B SWAP1 PUSH2 0x68C JUMP JUMPDEST DUP1 ISZERO PUSH2 0x278 JUMPI DUP1 PUSH1 0x1F LT PUSH2 0x24D JUMPI PUSH2 0x100 DUP1 DUP4 SLOAD DIV MUL DUP4 MSTORE SWAP2 PUSH1 0x20 ADD SWAP2 PUSH2 0x278 JUMP JUMPDEST DUP3 ADD SWAP2 SWAP1 PUSH1 0x0 MSTORE PUSH1 0x20 PUSH1 0x0 KECCAK256 SWAP1 JUMPDEST DUP2 SLOAD DUP2 MSTORE SWAP1 PUSH1 0x1 ADD SWAP1 PUSH1 0x20 ADD DUP1 DUP4 GT PUSH2 0x25B JUMPI DUP3 SWAP1 SUB PUSH1 0x1F AND DUP3 ADD SWAP2 JUMPDEST POP POP POP POP POP SWAP1 POP DUP3 JUMP JUMPDEST PUSH1 0x0 PUSH1 0x40 MLOAD DUP1 PUSH1 0x40 ADD PUSH1 0x40 MSTORE DUP1 DUP6 DUP2 MSTORE PUSH1 0x20 ADD DUP5 DUP5 DUP1 DUP1 PUSH1 0x1F ADD PUSH1 0x20 DUP1 SWAP2 DIV MUL PUSH1 0x20 ADD PUSH1 0x40 MLOAD SWAP1 DUP2 ADD PUSH1 0x40 MSTORE DUP1 SWAP4 SWAP3 SWAP2 SWAP1 DUP2 DUP2 MSTORE PUSH1 0x20 ADD DUP4 DUP4 DUP1 DUP3 DUP5 CALLDATACOPY PUSH1 0x0 DUP2 DUP5 ADD MSTORE PUSH1 0x1F NOT PUSH1 0x1F DUP3 ADD AND SWAP1 POP DUP1 DUP4 ADD SWAP3 POP POP POP POP POP POP POP DUP2 MSTORE POP SWAP1 POP PUSH1 0x2 DUP2 SWAP1 DUP1 PUSH1 0x1 DUP2 SLOAD ADD DUP1 DUP3 SSTORE DUP1 SWAP2 POP POP PUSH1 0x1 SWAP1 SUB SWAP1 PUSH1 0x0 MSTORE PUSH1 0x20 PUSH1 0x0 KECCAK256 SWAP1 PUSH1 0x2 MUL ADD PUSH1 0x0 SWAP1 SWAP2 SWAP1 SWAP2 SWAP1 SWAP2 POP PUSH1 0x0 DUP3 ADD MLOAD DUP2 PUSH1 0x0 ADD SSTORE PUSH1 0x20 DUP3 ADD MLOAD DUP2 PUSH1 0x1 ADD SWAP1 DUP1 MLOAD SWAP1 PUSH1 0x20 ADD SWAP1 PUSH2 0x331 SWAP3 SWAP2 SWAP1 PUSH2 0x35D JUMP JUMPDEST POP POP POP DUP3 DUP3 PUSH1 0x1 PUSH1 0x0 DUP8 DUP2 MSTORE PUSH1 0x20 ADD SWAP1 DUP2 MSTORE PUSH1 0x20 ADD PUSH1 0x0 KECCAK256 SWAP2 SWAP1 PUSH2 0x356 SWAP3 SWAP2 SWAP1 PUSH2 0x3E3 JUMP JUMPDEST POP POP POP POP POP JUMP JUMPDEST DUP3 DUP1 SLOAD PUSH2 0x369 SWAP1 PUSH2 0x68C JUMP JUMPDEST SWAP1 PUSH1 0x0 MSTORE PUSH1 0x20 PUSH1 0x0 KECCAK256 SWAP1 PUSH1 0x1F ADD PUSH1 0x20 SWAP1 DIV DUP2 ADD SWAP3 DUP3 PUSH2 0x38B JUMPI PUSH1 0x0 DUP6 SSTORE PUSH2 0x3D2 JUMP JUMPDEST DUP3 PUSH1 0x1F LT PUSH2 0x3A4 JUMPI DUP1 MLOAD PUSH1 0xFF NOT AND DUP4 DUP1 ADD OR DUP6 SSTORE PUSH2 0x3D2 JUMP JUMPDEST DUP3 DUP1 ADD PUSH1 0x1 ADD DUP6 SSTORE DUP3 ISZERO PUSH2 0x3D2 JUMPI SWAP2 DUP3 ADD JUMPDEST DUP3 DUP2 GT ISZERO PUSH2 0x3D1 JUMPI DUP3 MLOAD DUP3 SSTORE SWAP2 PUSH1 0x20 ADD SWAP2 SWAP1 PUSH1 0x1 ADD SWAP1 PUSH2 0x3B6 JUMP JUMPDEST JUMPDEST POP SWAP1 POP PUSH2 0x3DF SWAP2 SWAP1 PUSH2 0x469 JUMP JUMPDEST POP SWAP1 JUMP JUMPDEST DUP3 DUP1 SLOAD PUSH2 0x3EF SWAP1 PUSH2 0x68C JUMP JUMPDEST SWAP1 PUSH1 0x0 MSTORE PUSH1 0x20 PUSH1 0x0 KECCAK256 SWAP1 PUSH1 0x1F ADD PUSH1 0x20 SWAP1 DIV DUP2 ADD SWAP3 DUP3 PUSH2 0x411 JUMPI PUSH1 0x0 DUP6 SSTORE PUSH2 0x458 JUMP JUMPDEST DUP3 PUSH1 0x1F LT PUSH2 0x42A JUMPI DUP1 CALLDATALOAD PUSH1 0xFF NOT AND DUP4 DUP1 ADD OR DUP6 SSTORE PUSH2 0x458 JUMP JUMPDEST DUP3 DUP1 ADD PUSH1 0x1 ADD DUP6 SSTORE DUP3 ISZERO PUSH2 0x458 JUMPI SWAP2 DUP3 ADD JUMPDEST DUP3 DUP2 GT ISZERO PUSH2 0x457 JUMPI DUP3 CALLDATALOAD DUP3 SSTORE SWAP2 PUSH1 0x20 ADD SWAP2 SWAP1 PUSH1 0x1 ADD SWAP1 PUSH2 0x43C JUMP JUMPDEST JUMPDEST POP SWAP1 POP PUSH2 0x465 SWAP2 SWAP1 PUSH2 0x469 JUMP JUMPDEST POP SWAP1 JUMP JUMPDEST JUMPDEST DUP1 DUP3 GT ISZERO PUSH2 0x482 JUMPI PUSH1 0x0 DUP2 PUSH1 0x0 SWAP1 SSTORE POP PUSH1 0x1 ADD PUSH2 0x46A JUMP JUMPDEST POP SWAP1 JUMP JUMPDEST PUSH1 0x0 DUP1 DUP4 PUSH1 0x1F DUP5 ADD SLT PUSH2 0x49C JUMPI PUSH2 0x49B PUSH2 0x6F2 JUMP JUMPDEST JUMPDEST DUP3 CALLDATALOAD SWAP1 POP PUSH8 0xFFFFFFFFFFFFFFFF DUP2 GT ISZERO PUSH2 0x4B9 JUMPI PUSH2 0x4B8 PUSH2 0x6ED JUMP JUMPDEST JUMPDEST PUSH1 0x20 DUP4 ADD SWAP2 POP DUP4 PUSH1 0x1 DUP3 MUL DUP4 ADD GT ISZERO PUSH2 0x4D5 JUMPI PUSH2 0x4D4 PUSH2 0x6F7 JUMP JUMPDEST JUMPDEST SWAP3 POP SWAP3 SWAP1 POP JUMP JUMPDEST PUSH1 0x0 DUP2 CALLDATALOAD SWAP1 POP PUSH2 0x4EB DUP2 PUSH2 0x717 JUMP JUMPDEST SWAP3 SWAP2 POP POP JUMP JUMPDEST PUSH1 0x0 PUSH1 0x20 DUP3 DUP5 SUB SLT ISZERO PUSH2 0x507 JUMPI PUSH2 0x506 PUSH2 0x701 JUMP JUMPDEST JUMPDEST PUSH1 0x0 PUSH2 0x515 DUP5 DUP3 DUP6 ADD PUSH2 0x4DC JUMP JUMPDEST SWAP2 POP POP SWAP3 SWAP2 POP POP JUMP JUMPDEST PUSH1 0x0 DUP1 PUSH1 0x0 PUSH1 0x40 DUP5 DUP7 SUB SLT ISZERO PUSH2 0x537 JUMPI PUSH2 0x536 PUSH2 0x701 JUMP JUMPDEST JUMPDEST PUSH1 0x0 PUSH2 0x545 DUP7 DUP3 DUP8 ADD PUSH2 0x4DC JUMP JUMPDEST SWAP4 POP POP PUSH1 0x20 DUP5 ADD CALLDATALOAD PUSH8 0xFFFFFFFFFFFFFFFF DUP2 GT ISZERO PUSH2 0x566 JUMPI PUSH2 0x565 PUSH2 0x6FC JUMP JUMPDEST JUMPDEST PUSH2 0x572 DUP7 DUP3 DUP8 ADD PUSH2 0x486 JUMP JUMPDEST SWAP3 POP SWAP3 POP POP SWAP3 POP SWAP3 POP SWAP3 JUMP JUMPDEST PUSH1 0x0 PUSH2 0x589 DUP3 PUSH2 0x633 JUMP JUMPDEST PUSH2 0x593 DUP2 DUP6 PUSH2 0x63E JUMP JUMPDEST SWAP4 POP PUSH2 0x5A3 DUP2 DUP6 PUSH1 0x20 DUP7 ADD PUSH2 0x659 JUMP JUMPDEST PUSH2 0x5AC DUP2 PUSH2 0x706 JUMP JUMPDEST DUP5 ADD SWAP2 POP POP SWAP3 SWAP2 POP POP JUMP JUMPDEST PUSH2 0x5C0 DUP2 PUSH2 0x64F JUMP JUMPDEST DUP3 MSTORE POP POP JUMP JUMPDEST PUSH1 0x0 PUSH1 0x20 DUP3 ADD SWAP1 POP DUP2 DUP2 SUB PUSH1 0x0 DUP4 ADD MSTORE PUSH2 0x5E0 DUP2 DUP5 PUSH2 0x57E JUMP JUMPDEST SWAP1 POP SWAP3 SWAP2 POP POP JUMP JUMPDEST PUSH1 0x0 PUSH1 0x20 DUP3 ADD SWAP1 POP PUSH2 0x5FD PUSH1 0x0 DUP4 ADD DUP5 PUSH2 0x5B7 JUMP JUMPDEST SWAP3 SWAP2 POP POP JUMP JUMPDEST PUSH1 0x0 PUSH1 0x40 DUP3 ADD SWAP1 POP PUSH2 0x618 PUSH1 0x0 DUP4 ADD DUP6 PUSH2 0x5B7 JUMP JUMPDEST DUP2 DUP2 SUB PUSH1 0x20 DUP4 ADD MSTORE PUSH2 0x62A DUP2 DUP5 PUSH2 0x57E JUMP JUMPDEST SWAP1 POP SWAP4 SWAP3 POP POP POP JUMP JUMPDEST PUSH1 0x0 DUP2 MLOAD SWAP1 POP SWAP2 SWAP1 POP JUMP JUMPDEST PUSH1 0x0 DUP3 DUP3 MSTORE PUSH1 0x20 DUP3 ADD SWAP1 POP SWAP3 SWAP2 POP POP JUMP JUMPDEST PUSH1 0x0 DUP2 SWAP1 POP SWAP2 SWAP1 POP JUMP JUMPDEST PUSH1 0x0 JUMPDEST DUP4 DUP2 LT ISZERO PUSH2 0x677 JUMPI DUP1 DUP3 ADD MLOAD DUP2 DUP5 ADD MSTORE PUSH1 0x20 DUP2 ADD SWAP1 POP PUSH2 0x65C JUMP JUMPDEST DUP4 DUP2 GT ISZERO PUSH2 0x686 JUMPI PUSH1 0x0 DUP5 DUP5 ADD MSTORE JUMPDEST POP POP POP POP JUMP JUMPDEST PUSH1 0x0 PUSH1 0x2 DUP3 DIV SWAP1 POP PUSH1 0x1 DUP3 AND DUP1 PUSH2 0x6A4 JUMPI PUSH1 0x7F DUP3 AND SWAP2 POP JUMPDEST PUSH1 0x20 DUP3 LT DUP2 EQ ISZERO PUSH2 0x6B8 JUMPI PUSH2 0x6B7 PUSH2 0x6BE JUMP JUMPDEST JUMPDEST POP SWAP2 SWAP1 POP JUMP JUMPDEST PUSH32 0x4E487B7100000000000000000000000000000000000000000000000000000000 PUSH1 0x0 MSTORE PUSH1 0x22 PUSH1 0x4 MSTORE PUSH1 0x24 PUSH1 0x0 REVERT JUMPDEST PUSH1 0x0 DUP1 REVERT JUMPDEST PUSH1 0x0 DUP1 REVERT JUMPDEST PUSH1 0x0 DUP1 REVERT JUMPDEST PUSH1 0x0 DUP1 REVERT JUMPDEST PUSH1 0x0 DUP1 REVERT JUMPDEST PUSH1 0x0 PUSH1 0x1F NOT PUSH1 0x1F DUP4 ADD AND SWAP1 POP SWAP2 SWAP1 POP JUMP JUMPDEST PUSH2 0x720 DUP2 PUSH2 0x64F JUMP JUMPDEST DUP2 EQ PUSH2 0x72B JUMPI PUSH1 0x0 DUP1 REVERT JUMPDEST POP JUMP INVALID LOG2 PUSH5 0x6970667358 0x22 SLT KECCAK256 0x23 0x2E GT CALLDATASIZE DIV SWAP10 0x4D GAS PUSH28 0xC62535FEEF7404BD9D1820B3B3B137CEBF231E7CCEB5C564736F6C63 NUMBER STOP ADDMOD SMOD STOP CALLER LOG2 PUSH5 0x6970667358 0x22 SLT KECCAK256 PC 0xCA 0xB7 SUB GT PUSH14 0xF7C1018F2AD3D9B15301B5739148 ADDMOD 0xBF 0xD 0xDE 0xA6 0xC6 PUSH13 0xF8D32A289664736F6C63430008 SMOD STOP CALLER "
				},
				"gasEstimates": {
					"creation": {
						"codeDepositCost": "649400",
						"executionCost": "683",
						"totalCost": "650083"
					},
					"external": {
						"SimpleStorageArray(uint256)": "5086",
						"createSimpleStorageContract()": "infinite",
						"sfGet(uint256)": "infinite",
						"sfStore(uint256,uint256)": "infinite"
					}
				},
				"methodIdentifiers": {
					"SimpleStorageArray(uint256)": "f5daaa02",
					"createSimpleStorageContract()": "1dda6541",
					"sfGet(uint256)": "c5f19c20",
					"sfStore(uint256,uint256)": "1563700f"
				}
			},
			"storageLayout": {
				"storage": [
					{
						"astId": 70,
						"contract": "contracts/storagefactory.sol:storagefactory",
						"label": "SimpleStorageArray",
						"offset": 0,
						"slot": "0",
						"type": "t_array(t_contract(simpleStorage)63)dyn_storage"
					}
				],
				"types": {
					"t_array(t_contract(simpleStorage)63)dyn_storage": {
						"base": "t_contract(simpleStorage)63",
						"encoding": "dynamic_array",
						"label": "contract simpleStorage[]",
						"numberOfBytes": "32"
					},
					"t_contract(simpleStorage)63": {
						"encoding": "inplace",
						"label": "contract simpleStorage",
						"numberOfBytes": "20"
					}
				}
			},
			"userdoc": {
				"kind": "user",
				"methods": {},
				"version": 1
			}
		}
	}
}